:020000040800F2
:100000000000032025540008250B0008270B0008DA
:10001000290B00082B0B00082D0B00080000000026
:1000200000000000000000000000000081500008F7
:100030002F0B000800000000215100088551000826
:10004000755400087554000875540008755400086C
:10005000755400087554000875540008755400085C
:10006000755400087554000875540008755400084C
:10007000755400087554000875540008755400083C
:10008000755400087554000875540008755400082C
:10009000755400087554000875540008755400081C
:1000A000755400087554000875540008755400080C
:1000B00075540008755400087554000875540008FC
:1000C00075540008755400087554000875540008EC
:1000D00075540008755400087554000875540008DC
:1000E00075540008755400087554000875540008CC
:1000F00075540008755400087554000875540008BC
:1001000075540008755400087554000875540008AB
:100110007554000875540008310B00087554000828
:10012000755400087554000875540008755400088B
:10013000755400087554000875540008755400087B
:10014000755400087554000875540008755400086B
:10015000755400087554000875540008755400085B
:10016000755400087554000875540008755400084B
:1001700075540008410B0008755400080000000089
:10018000755400087554000875540008755400082B
:10019000755400087554000875540008755400081B
:0C01A000510B000875540008610B0008AA
:1001B00010B5054C237833B9044B13B10448AFF3A1
:1001C00000800123237010BD1000002000000000FB
:1001D000EC54000808B5034B1BB103490348AFF3C7
:1001E000008008BD0000000014000020EC5400084E
:1001F00053B94AB9002908BF00281CBF4FF0FF318E
:100200004FF0FF3000F074B9ADF1080C6DE904CE89
:1002100000F006F8DDF804E0DDE9022304B07047E1
:100220002DE9F047089D04468E46002B4DD18A42A9
:10023000944669D9B2FA82F252B101FA02F3C2F1DC
:10024000200120FA01F10CFA02FC41EA030E94406D
:100250004FEA1C48210CBEFBF8F61FFA8CF708FB8E
:1002600016E341EA034306FB07F199420AD91CEB66
:10027000030306F1FF3080F01F81994240F21C8198
:10028000023E63445B1AA4B2B3FBF8F008FB1033E0
:1002900044EA034400FB07F7A7420AD91CEB040415
:1002A00000F1FF3380F00A81A74240F207816444E5
:1002B000023840EA0640E41B00261DB1D44000236A
:1002C000C5E900433146BDE8F0878B4209D9002DCE
:1002D00000F0EF800026C5E9000130463146BDE858
:1002E000F087B3FA83F6002E4AD18B4202D38242C2
:1002F00000F2F980841A61EB030301209E46002D71
:10030000E0D0C5E9004EDDE702B9FFDEB2FA82F2C5
:10031000002A40F09280A1EB0C014FEA1C471FFA23
:100320008CFE0126200CB1FBF7F307FB131140EA0A
:1003300001410EFB03F0884208D91CEB010103F1D7
:10034000FF3802D2884200F2CB804346091AA4B299
:10035000B1FBF7F007FB101144EA01440EFB00FE6D
:10036000A64508D91CEB040400F1FF3102D2A645D2
:1003700000F2BB800846A4EB0E0440EA03409CE771
:10038000C6F12007B34022FA07FC4CEA030C20FA1E
:1003900007F401FA06F31C43F9404FEA1C4900FA3E
:1003A00006F3B1FBF9F8200C1FFA8CFE09FB1811BB
:1003B00040EA014108FB0EF0884202FA06F20BD92E
:1003C0001CEB010108F1FF3A80F08880884240F27E
:1003D0008580A8F102086144091AA4B2B1FBF9F0C2
:1003E00009FB101144EA014100FB0EFE8E4508D9BD
:1003F0001CEB010100F1FF346CD28E456AD9023842
:10040000614440EA0840A0FB0294A1EB0E01A14226
:10041000C846A64656D353D05DB1B3EB080261EB94
:100420000E0101FA07F722FA06F3F1401F43C5E96E
:10043000007100263146BDE8F087C2F12003D840A4
:100440000CFA02FC21FA03F3914001434FEA1C47E6
:100450001FFA8CFEB3FBF7F007FB10360B0C43EAD8
:10046000064300FB0EF69E4204FA02F408D91CEB88
:10047000030300F1FF382FD29E422DD90238634486
:100480009B1B89B2B3FBF7F607FB163341EA034126
:1004900006FB0EF38B4208D91CEB010106F1FF3875
:1004A00016D28B4214D9023E6144C91A46EA00466C
:1004B00038E72E46284605E70646E3E61846F8E6FE
:1004C0004B45A9D2B9EB020864EB0C0E0138A3E747
:1004D0004646EAE7204694E74046D1E7D0467BE728
:1004E000023B614432E7304609E76444023842E7A0
:1004F000704700BF08B509E00E4B64221A706420F3
:1005000004F006FC0B4B187804F002FC4FF4005189
:10051000094802F08CFB0121084802F07BFB00280F
:10052000F0D0044B1B78322BE6D0024B32221A70EB
:10053000E5E700BF00000020001802400000024074
:1005400000B589B000F0C6FA0DF1040C084C0FCCD0
:10055000ACE80F0094E807008CE80700002101A830
:1005600004F0A1FB034B186004F098FBFEE700BF0A
:10057000045500082C0000202DE9F04F8FB0002416
:1005800009940A940B940C940D9401947C4B1A6B6F
:1005900042F004021A631A6B02F004020192019AFB
:1005A00002941A6B42F020021A631A6B02F02002C6
:1005B0000292029A03941A6B42F080021A631A6B39
:1005C00002F080020392039A04941A6B42F0010233
:1005D0001A631A6B02F001020492049A05941A6BD2
:1005E00042F002021A631A6B02F002020592059AA7
:1005F00006941A6B42F040021A631A6B02F0400232
:100600000692069A07941A6B42F010021A631A6B4C
:1006100002F010020792079A08941A6B42F008023F
:100620001A631B6B03F008030893089BDFF864A1AF
:1006300022461621504602F0F4FADFF85CB1224659
:100640008021584602F0EDFADFF8509122464FF42F
:100650004051484602F0E5FA22464FF4C04149486D
:1006600002F0DFFA4FF63F0309934FF00208CDF88E
:1006700028800B9403270C970C260D9609A9424855
:1006800002F0CAF901250995CDF828800B940C9742
:100690000D9609A9504602F0BFF9162309930A9551
:1006A0000B940C9409A9504602F0B6F948F20703DE
:1006B00009934FF490130A930B9409A9584602F03A
:1006C000ABF9802309930A950B940C9409A9584619
:1006D00002F0A2F9202309934FF490130A930B948C
:1006E00009A9504602F098F9042309930A940B943F
:1006F00009A9264802F090F948F233130993CDF87E
:1007000028800B940C970D9609A91E4802F084F9D5
:100710004FF683730993CDF828800B940C970D96B0
:1007200009A91B4802F078F94CF203730993CDF83C
:1007300028800B940C970D9609A9484602F06CF995
:100740004FF4006309930A940B9409A9484602F0F8
:1007500063F94FF4405309930A950B940C9409A93B
:10076000484602F059F94FF4C04309930A950B9497
:100770000C9409A9034802F04FF90FB0BDE8F08FBF
:1007800000380240001802400014024000040240F9
:10079000001002400008024000000240000C02402D
:1007A00008B50268034B9A4200D008BD02F0BAFABD
:1007B000FBE700BF0010004072B6FEE700B595B041
:1007C0003022002108A804F089FE0023039304933B
:1007D00005930693079301931F4A116C41F08051D2
:1007E0001164126C02F080520192019A02931B4A2A
:1007F000136823F4404343F480431360136803F405
:1008000040430293029B012308934FF480330993E2
:1008100002230E934FF480020F9210221092C022F6
:10082000119212930423139308A801F071FC70B97C
:100830000F2303930221049100230593069307934A
:1008400003A801F0B3FE20B915B05DF804FBFFF773
:10085000B3FFFFF7B1FF00BF003802400070004057
:1008600008B50B480B4B03601023436000238360E3
:10087000C36003614361037643768376C37603776F
:10088000437702F061FA00B908BDFFF795FF00BF9A
:10089000300000200068004008B50448044B0360A5
:1008A00002F0F8FA00B908BDFFF786FF58000020F3
:1008B0000030024008B50C480C4B03600023436035
:1008C0008360C3608362C3620363436302F0F1FA2F
:1008D00028B90121044802F0B9FB10B908BDFFF79F
:1008E0006BFFFFF769FF00BF6000002000B002400F
:1008F00008B51148114B0360114B4360002383601E
:10090000C3604FF48042026143618361C36103624B
:1009100002F0FEFB50B90021074802F0D7FC38B9BD
:100920000021054802F0F4FC20B908BDFFF744FFA0
:10093000FFF742FFFFF740FFA0000020005C0040EF
:10094000A086010000B58FB03422002101A804F078
:10095000C5FD2748274B0360002343608360C360C5
:10096000036109224261012282611D22C2610322C8
:10097000026240F20D12426240F24312826240F281
:100980001712C26240F24712026380F8343080F8D6
:10099000353080F8363002F0B5FD20BB00220192E0
:1009A000F021029103924FF4A0730493022005906A
:1009B000FF20069007924FF4C0600890072009902E
:1009C0004FF050400A900B910C938DF834208DF825
:1009D00035208DF8362001A9054802F07DFE20B9AA
:1009E0000FB05DF804FBFFF7E7FEFFF7E5FE00BF81
:1009F000F40000200068014008B50D480D4B03606D
:100A00004FF48273436000238360C36003614361DA
:100A10004FF4007282611822C261036243628362F2
:100A20000A23C36202F08CFE00B908BDFFF7C4FEC2
:100A30009C0100200050014000B587B000230293C4
:100A4000039304930593009301931348134A0260A0
:100A5000436083604FF6FF72C2600361436183614C
:100A600003F060F890B94FF48053029302A90A484A
:100A700003F091F860B9002300930193694606489A
:100A800003F008F930B907B05DF804FBFFF794FEF6
:100A9000FFF792FEFFF790FEF401002000000140F6
:100AA00008B50A480A4B03604FF4E1334360002362
:100AB0008360C36003610C2242618361C36103F000
:100AC000B9F900B908BDFFF777FE00BF3C0200206E
:100AD0000010014008B502F00BF9FFF76FFEFFF7B9
:100AE0004BFDFFF7BDFEFFF7D7FEFFF7E3FEFFF775
:100AF000FFFEFFF727FFFFF77FFFFFF79DFFFFF7E1
:100B0000CFFF08BD7047704770470000034B03607C
:100B1000034B0B6080231360704700BF84040020E8
:100B200084020020FEE7FEE7FEE7FEE7FEE77047EF
:100B300008B5024802F0DAFE08BD00BFDC04002060
:100B400008B5024801F0A8F808BD00BF2405002040
:100B500008B5024802F053FD08BD00BFF4000020B4
:100B600008B5024802F0D4F908BD00BF60000020BB
:100B700000B583B0002200920D4B596C41F48041C6
:100B80005964596C01F48041009100990192196CEB
:100B900041F0805119641B6C03F080530193019B59
:100BA0000F216FF0010002F05DF803B05DF804FB67
:100BB0000038024000B589B00023039304930593E5
:100BC0000693079302681A4B9A4202D009B05DF867
:100BD00004FB0022009203F5E833196C41F08061B8
:100BE0001964196C01F08061009100990192196CEF
:100BF00041F000711964196C01F0007101910199C3
:100C000002921A6B42F002021A631B6B03F002039A
:100C10000293029B6023039302230493032306930E
:100C20000923079303A9034801F0F6FECEE700BFAE
:100C300000680040000402400268094B9A4200D05C
:100C4000704782B000230193064B1A6B42F4805226
:100C50001A631B6B03F480530193019B02B070472E
:100C6000003002400038024002680E4B9A4200D029
:100C7000704700B583B000220192A3F5F043196BD1
:100C800041F4000119631B6B03F400030193019B02
:100C900005215A2001F0E6FF5A2002F01BF803B0AC
:100CA0005DF804FB00B002402DE9F04188B000235C
:100CB000039304930593069307930268204B9A428B
:100CC00002D008B0BDE8F081002500951D4C236BD3
:100CD00043F004032363236B03F004030093009B9E
:100CE0000195236B43F001032363236B03F001039E
:100CF0000193019B4FF4007303934FF01208CDF85A
:100D00001080012705970426079603A90E4801F0D5
:100D100083FE4FF480730393CDF8108005970695FA
:100D2000079603A9094801F077FE0295236C43F466
:100D300000032364236C03F400030293029BC0E7C7
:100D4000005C004000380240000802400000024001
:100D50002DE9F04198B004460021139114911591AA
:100D600016911791302207A804F0B8FB2268624B55
:100D70009A4202D018B0BDE8F081082307933123CE
:100D80000B9302230D9307A801F004FD002840F007
:100D9000B08000240094594B5A6C42F080625A642F
:100DA0005A6C02F080620092009A01941A6B42F031
:100DB00020021A631A6B02F020020192019A029437
:100DC0001A6B42F001021A631A6B02F001020292DE
:100DD000029A03941A6B42F002021A631A6B02F031
:100DE00002020392039A04941A6B42F040021A63BF
:100DF0001A6B02F040020492049A05941A6B42F0B6
:100E000004021A631A6B02F004020592059A069412
:100E10001A6B42F008021A631B6B03F00803069377
:100E2000069B4FF480631393022514951594169432
:100E30000E26179613A9324801F0EEFD41F658032D
:100E40001393149515941694179613A92D4801F031
:100E5000E3FD032313931495159416944FF009089A
:100E6000CDF85C80284F13A9384601F0D5FD4FF42A
:100E700070631393149515941694179613A9384616
:100E800001F0CAFD4FF40C63139314951594169456
:100E9000179607F5A05713A9384601F0BDFD4FF48A
:100EA00098631393149515941694179613A91748DD
:100EB00001F0B2FD482313931495159416941796D8
:100EC00013A9134801F0A8FD4FF4A05313931495F0
:100ED00015941694CDF85C8013A9384601F09CFD5A
:100EE00022460521582001F0BDFE582001F0F2FEF7
:100EF00040E7FFF761FC4CE7006801400038024022
:100F000000140240000002400004024000080240B9
:100F1000000C024000B589B00023039304930593AD
:100F2000069307930268144B9A4202D009B05DF809
:100F300004FB0021019103F568435A6C42F48012CE
:100F40005A645A6C02F480120192019A02911A6B4F
:100F500042F020021A631B6B03F020030293029BF2
:100F60004FF460730393022304930523079303A9AB
:100F7000024801F051FDD9E7005001400014024041
:100F80000268094B9A4200D0704782B00023019357
:100F9000064B5A6C42F001025A645B6C03F0010389
:100FA0000193019B02B070470000014000380240ED
:100FB00000B589B000230393049305930693079328
:100FC000026803F1804303F588339A4202D009B0E6
:100FD0005DF804FB0021019103F594335A6C42F053
:100FE00010025A645A6C02F010020192019A0291A6
:100FF0001A6B42F001021A631B6B03F001030293A8
:10100000029B4FF4C06303930223049303230693CC
:101010000723079303A9024801F0FEFCD7E700BFAE
:101020000000024030B589B0044600230193214BF3
:101030001A6C42F010021A641B6C03F01003019347
:10104000019B02A903A801F087FB069BCBB901F025
:1010500063FB03461848A0FB03239B0C013B174886
:10106000174A026040F2E732C26043600023036126
:101070008360836102F056FD054630B1284609B011
:1010800030BD01F049FB4300E4E70C4802F0E6FB09
:1010900005460028F2D1362001F01CFE0F2C01D9A4
:1010A0000125EBE700222146362001F0DBFD054B50
:1010B0001C60E3E70038024083DE1B43DC040020B1
:1010C000001000400400002008B5D0F8DC0304F054
:1010D0004AF908BD08B5D0F8DC0304F05DF908BD95
:1010E00008B5D0F8DC0304F069F908BD08B5D0F8FC
:1010F000DC0304F081F908BD08B5D0F8DC0304F086
:101100003BF908BD08B5D0F8DC0304F041F908BD8F
:10111000022805D8DFE800F005040200012070472E
:101120000220704708B5D0F8D00300F063FEFFF747
:10113000EFFF08BDF8B50668346A04F00F07C4F382
:101140004343C4F30A14022B00D0F8BD0546002C1B
:10115000FBD0C7EB071300EB8303D96A0029F4D057
:10116000C7EB071300EB83039A6B22445B6B9A4235
:1011700007D9C7EB071700EB8705042385F84C3028
:10118000E3E72246304600F09BFEC7EB071305EB72
:101190008303DA6A2244DA629A6B22449A6306EB8A
:1011A0004716D6F81025C2F3C9421B8DA342CCD1F5
:1011B000002ACAD0D6F8003523F0804343F000431C
:1011C000C6F80035C7EB071305EB830393F83C2003
:1011D00082F0010283F83C20B7E730B583B00446C3
:1011E0000568D5F840340193D5F840340093009B4E
:1011F00023F02E030093019B13F0020F07D0019BF5
:1012000013F0010F25D1009B43F002030093019BD3
:1012100013F0080F10D0009B43F008030093019BCC
:1012200013F0040F2DD0637A022B15D0E379012B34
:1012300022D02046FFF760FF019B13F0200F03D060
:10124000009B43F020030093009BC5F8403403B09B
:1012500030BDFFF73FFFD6E7019B03F4C023B3F592
:10126000802F04D00121206800F064FEE1E7022114
:10127000206800F05FFEDCE74EF66022C5F804242B
:10128000D7E72046FFF73EFFD6E7F8B505460C4600
:101290000668304600F042FE10F0040F21D006EB45
:1012A00044130422C3F80825C4EB041305EB83039D
:1012B000072283F84D202146286800F061FE214670
:1012C000286800F02BFE10F4007F6CD021462868BF
:1012D00000F056FE06EB44164FF40073C6F80835CE
:1012E000F8BD2146286800F019FE10F4807F11D067
:1012F00006EB44134FF48072C3F80825C4EB0413C3
:1013000005EB8303082283F84D202146286800F06E
:1013100037FED4E72146286800F000FE10F0080FE1
:1013200010D006EB44130822C3F80825C4EB0413BD
:1013300005EB8303062283F84D202146286800F040
:101340001FFEBCE72146286800F0E8FD10F4806F1E
:1013500011D006EB44134FF48062C3F80825C4EBA8
:10136000041305EB8303092283F84D2021462868E6
:1013700000F006FEA3E72146286800F0CFFD10F03C
:10138000800F9CD006EB44138022C3F80825C4EBE1
:10139000041305EB8303072283F84D2021462868B8
:1013A00000F0EEFD8BE72146286800F0B7FD10F055
:1013B000010F75D006EB441606F5A0672023BB602D
:1013C000C4EB041305EB8303DB7E012B30D0AB7938
:1013D0004BB1C4EB041305EB83031A6B3969C1F3FA
:1013E0001201521A9A63C4EB041305EB8303012222
:1013F00083F84D2000215964BA6093F8263013B366
:10140000022B20D0032B01D0012B22D1D6F800359E
:1014100043F00053C6F80035C4EB041305EB830317
:10142000012283F84C2021462846FFF75FFE10E09A
:10143000C4EB041305EB83030022DA767B6823F404
:1014400080337B60C3E72146286800F099FD1023B4
:10145000BB60AB79012B0AD0C4EB041305EB83030B
:1014600093F83C2082F0010283F83C2038E7C4EB7B
:10147000041205EB8202936B128D1344013BB3FB04
:10148000F2F313F0010F3FF42BAFC4EB041305EBA1
:10149000830393F83C2082F0010283F83C201FE78D
:1014A0002146286800F03AFD10F0200F1ED006EB10
:1014B00044162023C6F80835C4EB041305EB830358
:1014C0009B7E012B7FF40CAFC4EB041305EB83036D
:1014D0000122DA76C4EB041305EB8303032283F8BD
:1014E0004D202146286800F04BFDF9E6214628688A
:1014F00000F014FD10F0020F00F01D8106EB441601
:1015000006F5A06202239360C4EB041305EB83038A
:1015100093F84D30012B13D0062B26D0072B2FD05C
:10152000092B2DD0052B68D0032B00F0B480042BA1
:1015300000F0DC80082B00F0F180022B0AD1CFE60E
:10154000C4EB041305EB8303022283F84D20012230
:1015500083F84C20C4EB041305EB830393F84C2071
:1015600021462846FFF7C2FDBAE6C4EB041305EB9B
:101570008303022283F84D20052283F84C20E9E7FB
:10158000C4EB041305EB8303022183F84D10596C5F
:101590000131596402291BD9C4EB041305EB830301
:1015A000002159649B7E012B07D0C4EB041305EB8B
:1015B0008303042283F84C20CCE7C4EB041305EB2F
:1015C0008303D9761977536823F480335360ECE7AB
:1015D000C4EB041305EB8303022283F84C2093F839
:1015E00026300BB19342B5D1D6F8003523F08043B5
:1015F00043F00043C6F80035ACE7C4EB041305EB39
:101600008303022183F84D10DB7E012BA2D13C2302
:1016100003FB045393F82630032B16D03C2303FB23
:101620000453022283F84C203C2303FB045393F819
:1016300026300BB1022B8DD1D6F8003523F0804334
:1016400043F00043C6F8003584E73C2101FB045118
:101650008B6C01338B64022B16D90B4600219964E5
:10166000D9765B6C022B04D83C2303FB0453012185
:101670001977536823F4803353603C2303FB0453EE
:10168000042283F84C20CFE73C2303FB04530222BF
:1016900083F84C20C8E7C4EB041305EB8303022155
:1016A00083F84D10DB7E012B7FF454AF3C2303FB0A
:1016B000045383F84C10516841F480315160D16873
:1016C00041F04001D160D16821F02001D16093F850
:1016D000263013B1022B7FF43DAFD6F8003523F04E
:1016E000804343F00043C6F8003533E7C4EB0413EE
:1016F00005EB8303022283F84D2083F84C2093F8F6
:10170000263013B193427FF425AFD6F8003523F08D
:10171000804343F00043C6F800351BE73C2303FB3E
:101720000453022283F84D205A6C01325A64042279
:1017300083F84C200EE72146286800F0EFFB10F0FC
:10174000400F18D006EB44134022C3F80825C4EB21
:10175000041305EB8303052283F84D209B7E2BB9F0
:10176000C4EB041305EB830300225A642146286866
:1017700000F006FCB4E52146286800F0CFFB10F02D
:10178000100F3FF4ADADC4EB041305EB830393F8E6
:101790002630032B28D00BB1022B18D1C4EB041335
:1017A00005EB830300225A64AB7933B1C4EB041315
:1017B00005EB8303DB7E012B09D13C2303FB0453A0
:1017C000042283F84D202146286800F0D9FBC4EBA1
:1017D000041305EB8303DB7E012B12D006EB4413CD
:1017E0001022C3F808257BE53C2303FB04530022A9
:1017F0005A64042283F84D202146286800F0C0FB7B
:10180000E5E7C4EB041305EB83050023EB7606EB59
:101810004413D3F8042522F48032C3F80425D3F806
:101820000C2542F02002C3F80C25D7E770B5054619
:101830000C460668304600F071FB10F0040F10D023
:1018400006EB44160423C6F80835C4EB041305EB75
:101850008303072283F84D202146286800F090FB7F
:1018600070BD2146286800F059FB10F0200F4AD0C7
:1018700006EB44162023C6F80835C4EB041305EB29
:1018800083035B7E012B2DD0C4EB041305EB830394
:101890009B7E012BE4D1C4EB041305EB8303DB7EB9
:1018A000002BDDD1C4EB041305EB830393F8263042
:1018B000012B05D0C4EB041305EB83030122DA7678
:1018C0002601C4EB041305EB8303032283F84D20A8
:1018D0002146286800F054FB341B05EB84050023E7
:1018E0006B64BDE7C4EB041305EB830300225A7657
:1018F000022283F84C20032283F84D2021462868D9
:1019000000F03EFBC0E72146286800F007FB10F41A
:10191000007F0AD006EB44164FF40073C6F8083572
:101920002146286800F02CFB9AE72146286800F041
:10193000F5FA10F0010F3BD0C4EB041305EB830361
:1019400000225A642146286800F0E8FA10F0400F9F
:101950000AD0C4EB041305EB830301225A7606EB8D
:1019600044134022C3F80825C4EB041305EB83039A
:10197000DB7E6BB1C4EB041305EB83030022DA7644
:1019800006EB4413D3F8042522F48032C3F804256F
:1019900006EB44160122C6F80825C4EB041305EB38
:1019A000830383F84D202146286800F0E9FA57E7C1
:1019B0002146286800F0B2FA10F0400F1ED0C4EBA8
:1019C000041305EB8303052283F84D209B7E2BB97E
:1019D000C4EB041305EB830301225A76C4EB041312
:1019E00005EB830300225A642146286800F0C8FAF8
:1019F00006EB44144023C4F8083531E72146286833
:101A000000F08CFA10F0080F10D006EB44130822F7
:101A1000C3F80825C4EB041305EB8303062283F8FF
:101A20004D202146286800F0ABFA19E721462868C6
:101A300000F074FA10F0100F20D0C4EB041305EB83
:101A4000830300225A64042283F84D205B7E5BB935
:101A5000C4EB041305EB83031B7E2BB9C4EB041307
:101A600005EB830301225A762146286800F088FAA4
:101A700006EB44131022C3F80825F1E62146286836
:101A800000F04CFA10F0800F2ED0AB79A3B1C4EB6C
:101A9000041205EB8202536C01335364022B16D8F7
:101AA0003C2303FB0455022385F84C3006EB44131A
:101AB0008022C3F80825D3E63C2303FB0453072206
:101AC00083F84D202146286800F05AFAEEE73C23BF
:101AD00003FB045300225A64042283F84C2021465D
:101AE0002846FFF703FBE1E72146286800F016FAD5
:101AF00010F4806F10D03C2303FB0453092283F8B9
:101B00004D202146286800F03BFA06EB44134FF4C1
:101B10008062C3F80825A3E62146286800F0FEF994
:101B200010F0020F3FF49CAE06EB441606F5A062DF
:101B3000022393603C2303FB045393F84D30012BA5
:101B400023D0032B62D0042B6FD0052B00F08280B2
:101B5000062B00F08880072B02D0092B7FF480AE83
:101B60003C2303FB0453022283F84D205A6C0132BC
:101B70005A64022A40F281803C2303FB0453002272
:101B80005A64042283F84C200EE03C2303FB0453E8
:101B9000022283F84D20012283F84C2093F826304E
:101BA000023BDBB2934209D93C2303FB045393F875
:101BB0004C2021462846FFF799FA51E6A97941B908
:101BC0003C2303FB045393F83D2082F0010283F889
:101BD0003D200129E8D13C2303FB04535B6B002B20
:101BE000E2D03C2202FB0452128D1344013BB3FBB2
:101BF000F2F313F0010FD7D03C2303FB045393F807
:101C00003D2082F0010283F83D20CDE73C2303FB19
:101C10000453022283F84D20DB7E012BC4D13C23E8
:101C200003FB045383F84C20BEE73C2303FB04531F
:101C3000022183F84D1083F84C10DB7E012BB3D1C9
:101C40003C2303FB04530021D976536823F48033EB
:101C50005360A9E73C2303FB0453022283F84D2081
:101C600083F84C20A0E73C2303FB0453022283F8B3
:101C70004D20052283F84C2096E73C2303FB0453B8
:101C8000022283F84C20D6F8003523F0804343F03D
:101C90000043C6F8003587E7F8B5044605682846CE
:101CA00000F044F9012800D0F8BD206800F032F9B6
:101CB0000028F9D0206800F02DF910F4001F03D09F
:101CC00023684FF400125A61206800F023F910F4E1
:101CD000801F03D023684FF480125A61206800F0FF
:101CE00019F910F0806F03D023684FF080625A61B9
:101CF000206800F00FF910F0020F02D023680222D2
:101D00005A61206800F006F910F0005F08D02368DF
:101D10004FF000525A61D5F8403413F0010F25D02E
:101D2000206800F0F7F810F0807F32D1206800F0D2
:101D3000F1F810F0080F30D1206800F0EBF810F047
:101D4000007F31D1206800F0E5F810F0100FABD023
:101D50002268936923F0100393612046FFF7EAF9A4
:101D60002268936943F0100393619DE71021284690
:101D700000F05EF8284600F080F8637A022B03D06A
:101D80002046FFF7ADF9CBE70121206800F0D2F83B
:101D9000F6E72046FFF721FAC8E72046FFF794F957
:101DA000236808225A61C7E7206800F0E4F8074674
:101DB000002604E0F1B22046FFF738FD01366379D2
:101DC000B34212D906F00F0327FA03F313F0010F01
:101DD000F4D005EB4613D3F8003513F4004FE9D0E7
:101DE000F1B22046FFF751FAE8E723684FF000729E
:101DF0005A61A7E790F8D433012B0BD010B50446F5
:101E0000012380F8D433006800F038F9002084F80A
:101E1000D40310BD02207047836843F00103836040
:101E200000207047836823F001038360002070471F
:101E300082B000230193019B01330193019BB3F115
:101E4000706F15D80369002BF5DA0023019389011F
:101E500041F020010161019B01330193019BB3F12A
:101E6000706F08D8036913F0200FF4D1002000E050
:101E7000032002B070470320FBE782B000230193E8
:101E8000019B01330193019BB3F1706F13D8036978
:101E9000002BF5DA0023019310230361019B01332A
:101EA0000193019BB3F1706F08D8036913F0100F11
:101EB000F4D1002000E0032002B070470320FBE7CC
:101EC00000B583B0844608464FEA920E02F0030242
:101ED000002305E00CF58051096840F8041B01332C
:101EE0007345F7D39AB10CF5805CDCF800300193B0
:101EF0004FF0000C5FFA8CF3D900019BCB4000F847
:101F0000013B0CF1010C013A92B2002AF2D103B06C
:101F10005DF804FB426980691040704700EB411195
:101F2000D1F80805D1F80C3518407047406900F029
:101F30000100704700F5806CD0F8003423F00303F3
:101F4000C0F80034D0F8003401F003021343C0F8A5
:101F50000034012907D002290BD141F27073CCF86B
:101F60000430002070474BF68033CCF8043000205A
:101F700070470120704700F58060406980B270476B
:101F800070B483B00023019300EB411101F5A0620E
:101F9000D1F80035C3F38143D1F800555468866801
:101FA00016F0200F08D0ED0FE40F2CB9002D5AD0F9
:101FB000012B58D0032B56D01BB3022B21D0D1F8C4
:101FC000003543F08043C1F80035D0F8103413F4E5
:101FD0007F0F4CD1D1F8003523F00043C1F8003514
:101FE000D1F8003543F00043C1F80035019B0133BF
:101FF0000193019BB3F57A7F35D81368002BF5DB8D
:1020000031E0D1F8003543F08043C1F800358368F2
:1020100013F0200F21D1C36A13F47F0F16D1D1F82A
:10202000003523F00043C1F80035D1F8003543F006
:102030000043C1F80035019B01330193019BB3F5C7
:102040007A7F10D81368002BF5DB0CE0D1F800354F
:1020500043F00043C1F8003505E0D1F8003543F006
:102060000043C1F80035002003B070BC7047D1F8C0
:10207000003543F00043C1F80035F4E730B583B0D4
:10208000044600230193FFF7CDFE10212046FFF701
:10209000CFFE054600B101252046FFF7EEFE00B158
:1020A000012500220AE004EB4211D1F8003523F0AB
:1020B000802343F08043C1F8003501320F2AF2D962
:1020C000002100E001310F2916D804EB411000F582
:1020D000A062D0F8003523F4004343F04043C0F839
:1020E0000035019B01330193019BB3F57A7FE9D859
:1020F0001368002BF5DBE5E74FF0FF33C4F8143429
:1021000063612046FFF788FE284603B030BD00001B
:10211000002800F0E08170B582B00446036813F037
:10212000010F3BD09F4B9B6803F00C03042B2CD07A
:102130009C4B9B6803F00C03082B21D06368B3F51C
:10214000803F4FD0B3F5A02F52D0964B1A6822F49F
:1021500080321A601A6822F480221A606368002BA9
:1021600050D000F0EBFD05468E4B1B6813F4003F8A
:1021700014D100F0E3FD401B6428F5D90320B1E140
:10218000884B5B6813F4800FD8D0864B1B6813F420
:10219000003F03D06368002B00F09F81236813F099
:1021A000020F54D07F4B9B6813F00C0F3ED07D4B39
:1021B0009B6803F00C03082B33D0E368002B68D036
:1021C000794B01221A6000F0B9FD0546754B1B687A
:1021D00013F0020F54D100F0B1FD401B0228F5D9D5
:1021E00003207FE16F4A136843F480331360B5E73F
:1021F0006C4B1A6842F480221A601A6842F48032EA
:102200001A60ABE700F09AFD0546664B1B6813F4B5
:10221000003FC3D000F092FD401B6428F5D9032095
:1022200060E1604B5B6813F4800FC6D15D4B1B68A7
:1022300013F0020F03D0E368012B40F05081594A9C
:10224000136823F0F803216943EAC103136023688C
:1022500013F0080F42D063696BB3534B0122C3F8EC
:10226000802E00F06BFD05464E4B5B6F13F0020FA6
:1022700034D100F063FD401B0228F5D9032031E181
:10228000484A136823F0F803216943EAC103136045
:10229000DDE7454B00221A6000F050FD0546414B3A
:1022A0001B6813F0020FD2D000F048FD401B02283B
:1022B000F5D9032016E13C4B0022C3F8802E00F034
:1022C0003DFD0546374B5B6F13F0020F06D000F063
:1022D00035FD401B0228F5D9032003E1236813F0E4
:1022E000040F77D02F4B1B6C13F0805F33D100238A
:1022F00001932C4B1A6C42F080521A641B6C03F051
:1023000080530193019B0125284B1B6813F4807FA8
:1023100023D0A368012B34D0052B38D0214B1A6F62
:1023200022F001021A671A6F22F004021A67A368EA
:10233000002B3DD000F002FD06461A4B1B6F13F038
:10234000020F46D100F0FAFC801B41F2883398421C
:10235000F3D90320C6E00025D6E7144A136843F4F6
:102360008073136000F0EAFC0646104B1B6813F400
:10237000807FCED100F0E2FC801B0228F5D903203B
:10238000B0E0084A136F43F001031367CFE7054B32
:102390001A6F42F004021A671A6F42F001021A67BC
:1023A000C5E700BF0038024000004742007000400F
:1023B00000F0C4FC0646524B1B6F13F0020F08D00E
:1023C00000F0BCFC801B41F288339842F3D9032013
:1023D00088E0EDB9A369002B00F08380484A926839
:1023E00002F00C02082A51D0022B17D0454B0022D4
:1023F0001A6600F0A3FC0446414B1B6813F0007FF3
:1024000042D000F09BFC001B0228F5D9032069E0B4
:102410003B4A136C23F080531364DBE7394B0022F3
:102420001A6600F08BFC0546354B1B6813F0007FE5
:1024300006D000F083FC401B0228F5D9032051E0B0
:10244000E369226A1343626A43EA8213A26A52086A
:10245000013A43EA0243E26A43EA0263284A5360CC
:10246000284B01221A6600F069FC0446244B1B68C5
:1024700013F0007F06D100F061FC001B0228F5D9A3
:1024800003202FE000202DE000202BE0012B2BD09B
:102490001B4B5B6803F48001E269914226D103F093
:1024A0003F02216A8A4223D1616A47F6C0721A400C
:1024B000B2EB811F1ED103F44031A26A5208013AE7
:1024C000B1EB024F18D103F07063E26AB3EB026F15
:1024D00014D1002006E001207047012002E0012015
:1024E00000E0002002B070BD0120FBE70120F9E709
:1024F0000120F7E70120F5E70120F3E70120F1E7EC
:10250000003802400000474208B5254B9B6803F0A5
:102510000C03042B3FD0082B3FD1214B5A6802F00B
:102520003F025B6813F4800F12D01D4B5968C1F352
:1025300088111C480023A1FB0001FDF759FE184B30
:102540005B68C3F3014301335B00B0FBF3F025E0AC
:10255000134B5968C1F3881C4FEA4C11B1EB0C00C6
:102560006EEB0E0E4FEA8E1343EA90638101091A57
:1025700063EB0E03DB0043EA5173C90011EB0C0C53
:1025800043F10003990200234FEA8C2041EA9C5159
:10259000FDF72EFED3E7034800E0034808BD00BF67
:1025A0000038024040787D010024F400002800F04B
:1025B0009B8070B50D4604464F4B1B6803F00F031C
:1025C0008B4208D2CBB24C4A1370136803F00F034E
:1025D0008B4240F08B80236813F0020F17D013F06A
:1025E000040F04D0454A936843F4E0539360236892
:1025F00013F0080F04D0414A936843F4604393609A
:102600003E4A936823F0F003A1680B43936023686C
:1026100013F0010F32D06368012B21D09A1E012ADA
:1026200025D9364A126812F0020F61D033498A6800
:1026300022F0030213438B6000F080FB06462F4B11
:102640009B6803F00C036268B3EB820F16D000F0B6
:1026500075FB801B41F288339842F0D9032042E099
:10266000264A126812F4003FE0D101203BE0234AE1
:10267000126812F0007FD9D1012034E01E4B1B6894
:1026800003F00F03AB4207D9EAB21B4B1A701B6869
:1026900003F00F03AB422DD1236813F0040F06D0D3
:1026A000164A936823F4E053E1680B439360236870
:1026B00013F0080F07D0114A936823F4604321698F
:1026C00043EAC1039360FFF71FFF0C4B9B68C3F302
:1026D00003130B4AD35CD8400A4B18600A4B1868A6
:1026E000FEF7A0FC002070BD012070470120FAE732
:1026F0000120F8E70120F6E7003C024000380240E4
:102700002C5500080800002004000020014B186828
:10271000704700BF0800002008B5FFF7F7FF044B23
:102720009B68C3F38223034AD35CD84008BD00BF33
:10273000003802403C55000808B5FFF7E7FF044B9E
:102740009B68C3F34233034AD35CD84008BD00BF43
:10275000003802403C5500080F2303600B4B9A6879
:1027600002F0030242609A6802F0F00282609A6806
:1027700002F4E052C2609B68DB0803F4E05303619B
:10278000034B1B6803F00F030B60704700380240D7
:10279000003C024030B583B00446036813F0430F99
:1027A00015D1236813F00C0F6AD1236813F0200FA2
:1027B00040F0BF80236813F0100F00F0238194F8DD
:1027C0002C20914BC3F8E021002003B030BD8F4B8B
:1027D00000229A6600F0B2FA05468D4B1B6813F092
:1027E000006F06D000F0AAFA431B022BF5D9032094
:1027F000EBE7236813F0010F07D06268A3681B079B
:1028000043EA8213824AC2F88430236813F0020F2D
:1028100015D07F4AD2F884106068E3681B0643EA4B
:10282000801301F0E0410B43C2F88430D2F88C30C1
:1028300023F01F03E16901390B43C2F88C30236890
:1028400013F0400F0AD06268E3681B0643EA821364
:10285000A26843EA02736E4AC2F884306B4B0122CD
:102860009A6600F06BFA0546694B1B6813F0006F1F
:1028700097D100F063FA401B0228F5D90320A4E7A2
:10288000624B00221A6700F059FA0546604B1B683C
:1028900013F0005F06D000F051FA431B022BF5D96C
:1028A000032092E7236813F0040F16D0584AD2F899
:1028B0008810206963691B0643EA801301F0E04138
:1028C0000B43C2F88830D2F88C3023F4F853216AD5
:1028D000013943EA0123C2F88C30236813F0080F52
:1028E00014D04B4AD2F88830216903F0706343EA70
:1028F0008113A16943EA0173C2F88830D2F88C30A1
:1029000023F44033616A0B43C2F88C303F4B012201
:102910001A6700F013FA05463D4B1B6813F0005F81
:102920007FF443AF00F00AFA401B0228F4D90320D9
:102930004BE700230193364B1A6C42F080521A6425
:102940001B6C03F080530193019B324A136843F4DC
:102950008073136000F0F2F905462E4B1B6813F4E8
:10296000807F06D100F0EAF9401B0228F5D9032048
:102970002BE7274B1B6F13F4407314D0A26A02F4A9
:1029800040729A420FD0224B1A6F22F440721F49B4
:102990000120C1F8400E0020C1F8400E1A671B6FDD
:1029A00013F0010F12D1A36A03F44072B2F5407F15
:1029B0001DD0174A936823F4F813936014490B6FE2
:1029C000A26AC2F30B0213430B67F3E600F0B6F9F9
:1029D00005460F4B1B6F13F0020FE4D100F0AEF968
:1029E000401B41F288339842F3D90320EDE60849B1
:1029F0008A6822F4F81223F0704323F440731343DF
:102A00008B60DBE70020E0E6001047420000474211
:102A1000003802400070004000230F2B00F2F180CC
:102A200070B582B061E085685E000324B44025EA99
:102A30000405CC68B4402C438460456825EA02054F
:102A40004C68C4F300129A402A4342605BE0DC0801
:102A5000083450F8246003F0070295000F22AA40C2
:102A600026EA020E0A69AA4042EA0E0240F8242031
:102A70005DE0092200E0002202FA0EF22A4302344D
:102A8000604D45F82420604A94686FEA0C0224EAFD
:102A90000C054E6816F4801F01D04CEA04055A4C10
:102AA000A560E46802EA04054E6816F4001F01D030
:102AB0004CEA0405544CE560646802EA04054E687B
:102AC00016F4003F01D04CEA04054F4C65602468C1
:102AD00022404D6815F4803F01D04CEA04024A4C74
:102AE000226001330F2B00F28A8001229A400C6889
:102AF00004EA020C32EA0404F3D14C6804F0030443
:102B0000013C012C8FD94A6802F00302032A09D044
:102B1000C4685D000322AA4024EA02048A68AA402D
:102B20002243C2604A6802F00302022A8FD004687E
:102B30004FEA430E032202FA0EF224EA02044A6824
:102B400002F0030202FA0EF2224302604A6812F413
:102B5000403FC6D0002201922C4A546C44F4804479
:102B60005464526C02F480420192019A9C08A51CA4
:102B7000244A52F8255003F003024FEA820E0F2236
:102B800002FA0EF225EA0205214A90423FF473AFA1
:102B900002F58062904222D002F58062904220D0FD
:102BA00002F5806290421ED002F5806290421CD0F5
:102BB00002F5806290421AD002F58062904218D0ED
:102BC00002F58062904216D002F58062904214D0E5
:102BD00002F5806290423FF44CAF0A224CE701229A
:102BE0004AE7022248E7032246E7042244E7052297
:102BF00042E7062240E707223EE708223CE702B010
:102C000070BD704700380140003C01400038024070
:102C1000000002400369194201D0012070470020E2
:102C200070470AB181617047090481617047436947
:102C300001EA030221EA030141EA0241816170478E
:102C4000074AD36823F4E0631B041B0C000200F462
:102C5000E060034343F0BF6343F40033D360704745
:102C600000ED00E000B5194BDB68C3F30223C3F1AC
:102C7000070CBCF1040F28BF4FF0040C03F1040E45
:102C8000BEF1060F18D9033B4FF0FF3E0EFA0CFCC5
:102C900021EA0C0199400EFA03F322EA03031943D7
:102CA00000280BDB0901C9B200F1604000F561406A
:102CB00080F800135DF804FB0023E5E700F00F0047
:102CC0000901C9B2024B1954F4E700BF00ED00E05E
:102CD00014ED00E0002807DB00F01F02400901238B
:102CE0009340024A42F82030704700BF00E100E004
:102CF00008B50B4B1A6842F400721A601A6842F465
:102D000080621A601A6842F480721A600320FFF72A
:102D100097FF0020FEF786F9FDF72AFF002008BD87
:102D2000003C0240034A1168034B1B780B441360BC
:102D3000704700BF0409002001000020014B186803
:102D4000704700BF04090020002800F0A18038B5BA
:102D5000044690F82030D3B12268136843F0010391
:102D60001360FFF7EBFF054623685A6812F0010F66
:102D700010D1FFF7E3FF401B0A28F5D9636A43F43B
:102D800000336362052384F82030012038BDFDF74D
:102D900011FFE1E71A6822F002021A60FFF7CEFF86
:102DA000054623685A6812F0020F0DD0FFF7C6FFE0
:102DB000401B0A28F5D9636A43F400336362052394
:102DC00084F820300120E1E7227E012A3DD01A68F4
:102DD00022F080021A60637E012B3BD022681368C8
:102DE00023F040031360A37E012B39D022681368BF
:102DF00023F020031360E37E012B37D02268136891
:102E000043F010031360237F012B35D02268136831
:102E100023F008031360637F012B33D0226813680B
:102E200023F004031360A368E26813432269134389
:102E3000626913436268013A21681343CB61002041
:102E40006062012384F82030A0E71A6842F0800213
:102E50001A60C0E72268136843F040031360C2E7BA
:102E60002268136843F020031360C4E722681368E4
:102E700023F010031360C6E72268136843F00803C9
:102E80001360C8E72268136843F004031360CAE7BD
:102E90000120704758B110B5044643791BB1012396
:102EA0006371002010BD0371FDF7C6FEF7E7012036
:102EB000704748B310B5044690F83930FBB102238F
:102EC00084F839302268136823F4403361680B4377
:102ED00013602268536B23F00703A1680B4353630D
:102EE0002268136C23F47F5323F03F03E1680B4304
:102EF00013640020E063012384F8393010BD80F8AA
:102F00003830FDF7B1FEDAE70120704770477047AF
:102F100070B5044603685D681E6815F0010F16D091
:102F200016F4807F13D01A6822F480721A60C36B83
:102F300043F00103C363036801229A60042380F80D
:102F40003930002380F83830436903B1984715F0D1
:102F5000200F18D016F4005F15D02268136823F4F0
:102F600000531360236820229A60E36B43F002034E
:102F7000E363042384F83930002384F8383063692C
:102F80000BB12046984715F0080F18D016F4006FC3
:102F900015D02268136823F40063136023680822A5
:102FA0009A60E36B43F00403E363042384F839304D
:102FB000002384F8383063690BB12046984715F038
:102FC000040F02D016F4806F20D115F0020F16D036
:102FD00016F4007F13D02268136823F40073136083
:102FE000236802229A60E36BE363012384F839309B
:102FF000002384F8383023690BB12046984715F038
:10300000100F02D016F4805F0CD170BD22681368D7
:1030100023F480631360236804229A602046FFF73C
:1030200075FFD2E72268136823F480531360236886
:1030300010229A60E36BE363012384F839300023A4
:1030400084F838302046FFF762FFDEE790F838302A
:10305000012B59D030B4012380F83830022380F896
:10306000393000EB0113DA698B1C1B01C35842EAAB
:103070000343093A012A1ED98A1C00EB0212526846
:1030800043EA026341BB0468656A204A2A4013434D
:103090006362026800EB01139C699461DB69093B80
:1030A000012B10D9012380F83930002380F8383003
:1030B000184630BC70478A1C00EB0212526802F0BE
:1030C0007F421343DEE7023100EB01114B680268D7
:1030D00023F07F439362E5E70468E5690B4A2A40E1
:1030E0001343E361026800EB01139C691461DB691F
:1030F000093B012BD6D8023100EB01114B68026865
:1031000023F07F431362CDE702207047F0FFFC00FD
:10311000002800F0CC8070B5044690F83D30002BBC
:1031200077D0242384F83D302268136823F001030C
:1031300013602268136843F4004313602268136825
:1031400023F400431360FFF7E7FA62685A4B9A4290
:1031500064D85A4B98428CBF00230123002B40F0C7
:10316000A8805749A1FB00318B0C25686A6822F0C2
:103170003F0242EA91426A6021680A6A22F03F02F5
:1031800066684D4DAE424FD8013313430B62216840
:10319000CA6922F44F4222F0FF026668464B9E4203
:1031A0004CD8431E7600B3FBF6F3013340F6FC70B7
:1031B000034278D0C3F30B031343CB6121680B6840
:1031C00023F0C003E269206A024313430B602168C5
:1031D0008B6823F4034323F0FF032269E068024372
:1031E00013438B602168CB6823F0FF036269A069F9
:1031F00002431343CB602268136843F0010313605A
:1032000000202064202384F83D30206384F83E00B1
:1032100070BD80F83C30FDF747FD82E7294B9842AE
:103220008CBF0023012399E74FF4967505FB03F348
:10323000254DA5FB03539B090133A6E7A368BBB942
:10324000451E06EB460CB5FBFCF50135C5F30B0539
:10325000B5FA85F56D0945BBC3B9013806EB4603E0
:10326000B0FBF3F30133C3F30B0343F40043A3E7D1
:10327000451E06EB860C0CEB8C0CB5FBFCF5013502
:10328000C5F30B05B5FA85F56D09E4E7013806EBE2
:10329000860303EB8303B0FBF3F30133C3F30B03A8
:1032A00043F4404388E7042386E7012384E70120B1
:1032B00070470120ACE700BFA08601007F841E009C
:1032C00083DE1B43FF083D00D34D621090F83D3074
:1032D000DBB2202B01D002207047242380F83D3040
:1032E0000268136823F0010313600268536A23F035
:1032F000100353620268536A1943516202681368EB
:1033000043F001031360202380F83D300020704714
:1033100090F83D30DBB2202B01D0022070472423EF
:1033200080F83D300268136823F0010313600268DF
:10333000536A9BB223F00F03194389B251620268AA
:10334000136843F001031360202380F83D30002010
:103350007047F0B54D680468E368C3F30B431D4440
:103360004FEAC21C04EBC214D4F8883003F4704353
:10337000C4F888300B680468E668C6F30B4633442B
:10338000013304EBC21443EA0543C4F88830CD6826
:103390000468E368C3F30A031D4404EBC21EDEF8AD
:1033A0008C3003F47043CEF88C308B680468E66888
:1033B000C6F30A063344013304EBC21443EA05435F
:1033C000C4F88C30036803EBC213D3F8944024F0A4
:1033D0000704C3F89440036803EBC2130C69C3F8F5
:1033E000944091F8317091F832508E69046804EB82
:1033F000C21404F1840ED4F89C300024CEF8184096
:1034000091F8303043EA072343EA0543056805EBAA
:10341000C21543EA0663C5F89C30036803EBC21388
:10342000D3F8985025F0FF05C3F89850036803EBD4
:10343000C2134D69C3F89850036803EBC213D3F865
:10344000A05025F4E06525F00705C3F8A0500D6AEB
:10345000036803EBC213CE693543C3F8A050036879
:1034600003EBC213D3F8AC50C3F8AC40036803EBD2
:10347000C2124B6AC2F8AC300C696CB1012C3BD063
:10348000042C3BD0022C08D0032C39D0072C01D0BF
:10349000012402E0022400E0042402686244D2F81D
:1034A000B03003F0E023C2F8B0308B6A04FB03F5C0
:1034B0004B680A689B1A04FB03F3033302686244F7
:1034C00043EA0543C2F8B03003686344D3F8B4203C
:1034D00022F4FF6222F00702C3F8B42003686344B9
:1034E000CA6AC3F8B42003689C44DCF8843043F013
:1034F0000103CCF88430F0BD0324CEE70224CCE7EE
:103500000224CAE7002872D038B5044690F8A130EA
:10351000002B67D0022384F8A1302268936923F03E
:103520007043936121688A696368A0680343E06817
:1035300003432069034313438B6121688A682D4B41
:103540001A408A6020688268A169656941EA05417C
:103550000A4382602168CA681A40CA602068C2684B
:10356000216AE56941EA05410A43C26021680A69A6
:103570001A400A6120680269A16A656A41EA054148
:103580000A43026121684A6913404B61E06A21687D
:103590004B69226B42EA004213434B6194F83500B9
:1035A00094F836301B042168CA6A02F07F42CA626E
:1035B0002168CA6A43EA002394F8340003431343A2
:1035C000CB622268536B43F006035363226893690E
:1035D00043F0010393610020C4F8A400012384F8A0
:1035E000A13038BD80F8A030FDF7B2FB92E7012092
:1035F000704700BF00F800F070477047704770B523
:10360000044603689D6B5E6B15F0040F02D016F044
:10361000040F12D115F0020F02D016F0020F21D1C3
:1036200015F0010F02D016F0010F32D115F0080F7E
:1036300002D016F0080F3DD170BD5A6B22F0040283
:103640005A6303680422DA63D0F8A43043F001031C
:10365000C0F8A43080F8A120002380F8A030FFF744
:10366000CBFFD7E72268536B23F002035363236831
:103670000222DA63D4F8A4301343C4F8A43004233C
:1036800084F8A130002384F8A0302046FFF7B4FF6F
:10369000C6E72268536B23F00103536322680123BA
:1036A000D36384F8A130002384F8A0302046FFF7CC
:1036B000A4FFBBE72268536B23F00803536323681E
:1036C0000822DA63012384F8A130002384F8A030B3
:1036D0002046FFF793FFAFE7F8B590F8A030012B35
:1036E0002CD004460D461646012780F8A070022310
:1036F00080F8A1304FF0340C0CFB020C0CF1380CAC
:103700008E46BEE80F00ACE80F00BEE80F00ACE844
:103710000F00BEE80F00ACE80F00DEF80030CCF878
:103720000030324629462046FFF713FE23685F62C9
:1037300084F8A170002084F8A000F8BD0220FCE706
:1037400000285AD010B50446436A33B94368B3F52C
:10375000827F05D00023C36102E00023036143613F
:103760000023A36294F85130002B40D0022384F848
:1037700051302268136823F040031360636803F438
:103780008273A26802F404421343E26802F4006206
:103790001343226902F002021343626902F001023C
:1037A0001343A26902F400721343E26902F0380283
:1037B0001343226A02F080021343A26A02F4005209
:1037C000216813430B60638B03F00403626A02F009
:1037D0001002216813434B602268D36923F400630D
:1037E000D36100206065012384F8513010BD84F856
:1037F00050302046FDF78EFBB8E70120704710B42B
:10380000036A046A24F001040462846924F0F00C61
:103810004CEA021223F00A030B43826103625DF853
:10382000044B704710B4036A046A24F01004046265
:10383000846924F4704C4CEA023223F0A00343EA7A
:103840000113826103625DF8044B7047836823F0C3
:1038500070030B4343F007038360704790F83D30DB
:10386000DBB2012B37D1022380F83D300268D368E8
:1038700043F00103D3600368194A934220D0B3F1A7
:10388000804F1DD0A2F57C42934219D002F5806290
:10389000934215D002F58062934211D002F578422E
:1038A00093420DD002F57052934209D0A2F59432A2
:1038B000934205D01A6842F001021A600020704756
:1038C0009A6802F00702062A07D01A6842F001023D
:1038D0001A6000207047012070470020704700BF29
:1038E00000000140704770477047704770B504464C
:1038F0000368DE681D6915F0020F10D016F0020F84
:103900000DD06FF002021A610123037703689B69EF
:1039100013F0030F5ED0FFF7E6FF0023237715F0C7
:10392000040F12D016F0040F0FD023686FF00402BA
:103930001A610223237723689B6913F4407F4FD0D9
:103940002046FFF7D0FF0023237715F0080F12D091
:1039500016F0080F0FD023686FF008021A610423D5
:1039600023772368DB6913F0030F40D02046FFF76D
:10397000BAFF0023237715F0100F12D016F0100FA6
:103980000FD023686FF010021A6108232377236891
:10399000DB6913F4407F31D02046FFF7A4FF0023FA
:1039A000237715F0010F02D016F0010F2DD115F07D
:1039B000800F02D016F0800F2FD115F0400F02D0EB
:1039C00016F0400F31D115F0200F02D016F0200F65
:1039D00033D170BDFFF786FF2046FFF785FF9CE7D8
:1039E0002046FFF77FFF2046FFF77EFFABE720462C
:1039F000FFF778FF2046FFF777FFBAE72046FFF78B
:103A000071FF2046FFF770FFC9E723686FF00102DE
:103A10001A612046FCF7C4FEC9E723686FF08002F4
:103A20001A61204600F07DF9C7E723686FF0400275
:103A30001A612046FFF759FFC5E723686FF020029F
:103A40001A61204600F06CF9C3E700000368344AAD
:103A5000904212D0B0F1804F0FD0A2F57C4290423C
:103A60000BD002F58062904207D002F5806290424E
:103A700003D002F57842904203D123F070034A68E4
:103A80001343274A90422AD0B0F1804F27D0A2F5A5
:103A90007C42904223D002F5806290421FD002F512
:103AA000806290421BD002F57842904217D002F516
:103AB0007052904213D002F5806290420FD002F50E
:103AC000806290420BD0A2F59832904207D002F566
:103AD0008062904203D002F58062904203D123F4C9
:103AE0004073CA68134323F080034A691343036099
:103AF0008B68C3620B688362094B984203D003F55D
:103B00008063984201D10B69036301234361036918
:103B100013F0010F03D0036923F001030361704721
:103B20000000014040B310B5044690F83D30F3B1B9
:103B3000022384F83D30214651F8040BFFF786FF3D
:103B4000012384F8463084F83E3084F83F3084F80E
:103B5000403084F8413084F8423084F8433084F8AF
:103B6000443084F8453084F83D30002010BD80F8A2
:103B70003C30FDF705FADBE70120704710B484689C
:103B800024F47F4C42EA03220A4342EA0C02826098
:103B90005DF8044B704790F83C30012B78D010B59D
:103BA0000446012380F83C30022380F83D3002684F
:103BB000936823F47F4323F0770393600B68602BB3
:103BC0004CD029D8402B54D00CD9502B22D1CA68C4
:103BD00049680068FFF713FE50212068FFF736FEA2
:103BE000002005E0202B0DD009D9302B0AD0012070
:103BF000012384F83D30002384F83C3010BD0BB124
:103C0000102B05D119462068FFF720FE0020EFE7B2
:103C10000120EDE70120EBE7B3F5805F34D0B3F589
:103C2000005F0CD1CB684A6889680068FFF7A6FF7F
:103C30002268936843F4804393600020D8E7702B98
:103C400024D1CB684A6889680068FFF797FF22682B
:103C5000936843F0770393600020C9E7CA68496816
:103C60000068FFF7DFFD60212068FFF7EFFD00200F
:103C7000BEE7CA6849680068FFF7C1FD40212068B7
:103C8000FFF7E4FD0020B3E70020B1E70120AFE734
:103C90000220704790F83C30012B3DD010B4012336
:103CA00080F83C30022380F83D3003685A689C68F5
:103CB00022F0700C0A6842EA0C025A600368174A44
:103CC00093421AD0B3F1804F17D0A2F57C429342B1
:103CD00013D002F5806293420FD002F580629342C6
:103CE0000BD002F57842934207D002F5705293420E
:103CF00003D0A2F59432934204D124F080044A68A0
:103D000014439C60012380F83D30002380F83C3050
:103D100018465DF8044B70470220704700000140D0
:103D20007047704738B504460268136923F440535E
:103D3000C1680B43136183680269134342691343EB
:103D4000C2691A430168CB6823F4164323F00C03BD
:103D50001343CB600268536923F4407381690B43BA
:103D600053610368314A934206D002F58062934260
:103D700002D0FEF7D1FC01E0FEF7DEFCE369B3F50B
:103D8000004F29D00021031849411B1841F10001BF
:103D9000C90041EA5371DB00181863684FEA8302D7
:103DA0004FEA937341F10001FCF722FA204DA5FB85
:103DB00000325109642303FB11031B013233A5FBBD
:103DC00003235B0903F0F00202EB011203F00F037F
:103DD000216813448B6038BD0023021843EB0301B4
:103DE000121841F10001C90041EA5271D2001018C5
:103DF00041F10001626892185B41FCF7F9F90C4D42
:103E0000A5FB00325109642303FB1103DB003233AD
:103E1000A5FB03235B095A0002F4F87202EB0112BE
:103E200003F00703216813448B60D4E700100140BE
:103E30001F85EB5160B310B5044690F8413013B3C1
:103E4000242384F841302268D36823F40053D360DC
:103E50002046FFF767FF2268136923F4904313613C
:103E60002268536923F02A0353612268D36843F41C
:103E70000053D36000206064202384F8413084F82C
:103E80004230606310BD80F84030FDF791F8D7E70D
:103E900001207047034AD2F8883043F47003C2F817
:103EA0008830704700ED00E000F1080343604FF0F8
:103EB000FF328260C3600361002303607047002308
:103EC0000361704743684B609A688A6051609960EB
:103ED0000861036801330360704730B40D68B5F1C1
:103EE000FF3F11D000F108031C465B681A68AA4224
:103EF000FAD963684B6099608C60616008610368FF
:103F00000133036030BC70470469F2E7036941681C
:103F100082688A60416851605A68824206D00022F5
:103F200002611A68013A1A601868704782685A601C
:103F3000F5E710B5044601F0B5F8A26BE36B9A42C1
:103F400004D0002401F0D0F8204610BD0124F9E788
:103F500070B504461546866B026C5AB903681BB1EE
:103F600000200136A66370BD806800F031FE00239A
:103F7000A360F6E76DB9406801F0A2FA226C6368AD
:103F800013446360A268934219D323686360284690
:103F9000E7E7C06801F094FA226C5142E3689B1A8B
:103FA000E3602268934202D2A3680B44E360022DCF
:103FB00001D00020D5E726B1013E0020D1E72846F8
:103FC000CFE70020CDE738B5054601F06BF895F84E
:103FD000454064B201E0013C64B2002C0ADD6B6A2A
:103FE00043B105F1240000F049FD0028F3D000F0B2
:103FF000D9FDF0E7FF2385F8453001F075F801F0B1
:1040000051F895F8444064B201E0013C64B2002CE0
:104010000ADD2B6943B105F1100000F02FFD0028E7
:10402000F3D000F0BFFDF0E7FF2385F8443001F046
:104030005BF838BDF0B585B0019288B10F461D46DA
:104040000446B1B1022D20D1E36B012B1DD04FF0FE
:10405000500383F31188BFF36F8FBFF34F8FFEE7D9
:104060004FF0500383F31188BFF36F8FBFF34F8F6F
:10407000FEE7036C002BE5D04FF0500383F311886B
:10408000BFF36F8FBFF34F8FFEE700F091FD064641
:1040900058B9019B002B48D04FF0500383F311888F
:1040A000BFF36F8FBFF34F8FFEE700263DE02A4638
:1040B00039462046FFF74CFF636A7BB948B14FF0A1
:1040C000E0234FF08052C3F8042DBFF34F8FBFF3AE
:1040D0006F8F01F009F8012005B0F0BD04F1240054
:1040E00000F0CCFC0028F4D04FF0E0234FF08052D9
:1040F000C3F8042DBFF34F8FBFF36F8FE9E700F0D4
:10410000F3FF0020E8E702A800F0FEFC012619E01A
:10411000002384F8443021E0002384F8453023E074
:104120002046FFF750FF00F089FB00F0BBFFA26BB9
:10413000E36B9A42BBD3022DB9D0019B002BDED09A
:10414000002EE0D000F0D0FF00F0E4FA00F0AAFF6B
:1041500094F8442052B2B2F1FF3FD9D094F84520F0
:1041600052B2B2F1FF3FD7D000F0BEFF01A902A8C2
:1041700000F0D6FCD8B92046FFF7DBFE0028CFD0F0
:10418000019904F1100000F061FC2046FFF71BFFCD
:1041900000F054FB0028C8D14FF0E0234FF08052CC
:1041A000C3F8042DBFF34F8FBFF36F8FBDE72046D9
:1041B000FFF709FF00F042FB00208DE72DE9F843EF
:1041C00090B10F4616461C460546B1B1022C20D1CF
:1041D000EB6B012B1DD04FF0500383F31188BFF31D
:1041E0006F8FBFF34F8FFEE74FF0500383F31188BB
:1041F000BFF36F8FBFF34F8FFEE7036C002BE5D04B
:104200004FF0500383F31188BFF36F8FBFF34F8FCD
:10421000FEE701F06DF8EFF311894FF0500383F3DF
:104220001188BFF36F8FBFF34F8FAA6BEB6B9A426E
:1042300006D3022C04D0002089F31188BDE8F8834E
:1042400095F845804FFA88F8AB6B224639462846E8
:10425000FFF77EFEB8F1FF3F06D008F101035BB225
:1042600085F845300120E7E76B6A0BB90120E3E7E9
:1042700005F1240000F002FC18B126B101203060E5
:10428000DAE70120D8E70120D6E70000084B1B68D9
:104290001B6823B9074B4FF0FF321A607047044B7D
:1042A0001B68DB68DB685A68024B1A60704700BF06
:1042B0000C090020E00900202DE9F04780460D465A
:1042C00017469946089EDDF824A00A9C9200A52175
:1042D000206B01F003F9236B07F18042013A03EBF5
:1042E000820727F00707002D37D04FF0000CBCF1F4
:1042F0000F0F0BD815F80C2004EB0C0383F83420B7
:1043000015F80C3013B10CF1010CF0E7002384F820
:104310004330062E00D90626E66266640025A564B1
:10432000201DFFF7CCFD04F11800FFF7C8FD246144
:10433000C6F10706A6616462E564256584F85450F9
:104340004A464146384600F085FE2060BAF1000F2B
:1043500001D0CAF80040BDE8F087002384F834306B
:10436000D7E7000038B5002407E004EB840293008F
:104370000E481844FFF798FD0134062CF5D90C4D72
:104380002846FFF791FD0B4C2046FFF78DFD0A48AC
:10439000FFF78AFD0948FFF787FD0948FFF784FD0D
:1043A000084B1D60084B1C6038BD00BF140900207D
:1043B000B4090020C8090020EC090020180A0020D8
:1043C000040A00200C0900201009002010B5044642
:1043D00000F068FE214A136801331360204B1B680C
:1043E0005BB1204B1B686BB91D4B1B68DA6AE36A33
:1043F0009A4207D81A4B1C6004E0194B1C601368E2
:10440000012B28D0184A136801331360E06A012396
:104410008340164A11680B43136000EB8000211D96
:10442000134B03EB8000FFF74DFD00F05DFE0D4BDD
:104430001B687BB10A4B1B68DA6AE36A9A4209D2AD
:104440004FF0E0234FF08052C3F8042DBFF34F8F9D
:10445000BFF36F8F10BDFFF785FFD3E7A0090020E2
:1044600008090020000A0020AC090020B009002043
:104470001409002010B5044690F8553063B1012BA3
:1044800011D0022B0ED04FF0500383F31188BFF3ED
:104490006F8FBFF34F8FFEE7006B00F05FFD20468C
:1044A00000F05CFD10BD00F059FDFBE70F4B1B68F1
:1044B000D3B110B500F0F6FD0D4BDB68DC68201DB4
:1044C000FFF724FD0B4A1368013B1360074A13688A
:1044D000013B136000F008FE2046FFF7CBFF034BC3
:1044E0001B68002BE6D110BD704700BFA409002057
:1044F000180A0020A009002070B504460D461D4B87
:104500001E681D4B18680430FFF700FD50B91A4BA8
:104510001B68DA6A012303FA02F218490B6823EADE
:1045200002030B60B4F1FF3F0DD03444124B1B6803
:104530005C60A64210D9124B18680F4B1968043101
:10454000FFF7CBFC70BD002DEFD00B4B1968043189
:104550000C48FFF7B7FCF5E70B4B1868064B1968DA
:104560000431FFF7BAFC094B1B68A342EAD9074B99
:104570001C60E7E72C0A002008090020B009002091
:1045800010090020040A00200C090020E009002086
:1045900008B50BE04FF0E0234FF08052C3F8042D34
:1045A000BFF34F8FBFF36F8FFCF7ACFAFFF77EFFBF
:1045B000024B1B68012BEDD8F6E700BF1409002061
:1045C00030B587B00B9C7CB10C9DB5B158250495D6
:1045D000049D582D1AD04FF0500383F31188BFF378
:1045E0006F8FBFF34F8FFEE74FF0500383F31188B7
:1045F000BFF36F8FBFF34F8FFEE74FF0500383F38E
:104600001188BFF36F8FBFF34F8FFEE7049D0C9DA2
:104610002C63022485F8554000240394029505ACD0
:1046200001940A9C0094FFF747FE0C98FFF7CEFE1A
:10463000059807B030BD2DE9F04385B007468846A0
:1046400014461E46900000F001FC00B3814658203D
:1046500000F0FCFB0546B0B1C0F83090E5B1002396
:1046600085F85530039302950D9B01930C9B0093A5
:104670003346224641463846FFF71EFE2846FFF7DE
:10468000A5FE012005E0484600F068FCE6E74FF093
:10469000FF3005B0BDE8F0834FF0FF30F9E70000D0
:1046A00010B588B000240594069407AA06A905A8A9
:1046B000FCF72CFA059B0293069B0193009423467A
:1046C000079A0E490E48FFF77BFF0E4B186090B11A
:1046D0004FF0500383F31188BFF36F8FBFF34F8FF9
:1046E000094B4FF0FF321A60084B01221A60084B49
:1046F0001C6000F071FD08B010BD00BF44550008FB
:1047000091450008DC090020E0090020000A002093
:104710002C0A0020024A136801331360704700BF5F
:10472000A8090020F8B53A4B1B68002B69D1394B1A
:104730001D6801351D60C5B9374B1B681B6843B147
:104740004FF0500383F31188BFF36F8FBFF34F8F88
:10475000FEE7314A1168314B186810601960304A21
:10476000136801331360FFF791FD2E4B1B68AB42BA
:104770003DD900272C4B1B68DB6A03EB83039A00AF
:104780002A4B9B58012B00D90127294B1B68002B72
:104790003CD001273AE001271F4B1B681B6843B33D
:1047A0001D4B1B68DB68DC6863689D4226D3261DB1
:1047B0003046FFF7ABFBA36A1BB104F11800FFF70B
:1047C000A5FBE36A01229A401A49086802430A607D
:1047D00003EB83039A00314614481044FFF772FB41
:1047E000E26A114B1B68DB6A9A42D4D2D4E70027F5
:1047F000D2E70C4B4FF0FF321A60BBE7094A136057
:10480000B8E70D4A13680133136000273846F8BD36
:10481000A80900202C0A00200C0900201009002003
:10482000E4090020E0090020080900201409002004
:10483000300A0020B0090020E809002038B5354BC7
:104840001B6843B94FF0500383F31188BFF36F8F98
:10485000BFF34F8FFEE700F025FC2E4B1A68013A9C
:104860001A601B68002B4FD12B4B1B680BB900241F
:104870004BE00024294B1B681BB3284BDB68DC682A
:1048800004F11800FFF742FB251D2846FFF73EFB09
:10489000E06A01238340224A11680B43136000EB56
:1048A000800029461F4B03EB8000FFF70BFBE26AF9
:1048B0001D4B1B68DB6A9A42DCD31C4B01221A6039
:1048C000D8E70CB1FFF7E2FC194B1C6884B9174B11
:1048D0001C68D4B14FF0E0234FF08052C3F8042D90
:1048E000BFF34F8FBFF36F8F01240EE0013C07D061
:1048F000FFF718FF0028F9D00C4B01221A60F5E7EA
:104900000B4B00221A60E2E7002400F0EDFB20468A
:1049100038BD00BFA8090020A0090020EC09002034
:10492000B00900201409002008090020300A0020E6
:10493000E809002010B5A8B10446104B1B6843B12C
:104940004FF0500383F31188BFF36F8FBFF34F8F86
:10495000FEE7FFF7DFFE00212046FFF7CDFDFFF762
:104960006DFF48B94FF0E0234FF08052C3F8042D9B
:10497000BFF34F8FBFF36F8F10BD00BFA80900209A
:1049800008B52D4B1B681BB12C4B01221A6008BDCA
:104990002A4B00221A602A4B1B681B6B1A68B2F163
:1049A000A53F03D15A68B2F1A53F1BD0244B18682C
:1049B00019683431FCF7A7F8224B1B68B3FA83F36C
:1049C000DBB2C3F11F0303EB83018A001E498A583F
:1049D0008AB94FF0500383F31188BFF36F8FBFF391
:1049E0004F8FFEE79A68B2F1A53FDFD1DB68B3F1E4
:1049F000A53FDBD1E0E7144903EB830082000A44C2
:104A000050684068506003EB830C4FEA8C02083218
:104A10001144884209D003EB83039A000A4B1344E4
:104A20005B68DA68064B1A60B1E74068624691003D
:104A3000054A0A445060EEE7A8090020300A002029
:104A400008090020B00900201409002058B110B551
:104A50000C46094A11681831FFF73FFA0121204638
:104A6000FFF74AFD10BD4FF0500383F31188BFF3E9
:104A70006F8FBFF34F8FFEE70809002038B5C3687A
:104A8000DC6824B304F118052846FFF73FFA184BF9
:104A90001B682BBB251D2846FFF738FAE06A012367
:104AA0008340144A11680B43136000EB80002946D1
:104AB000114B03EB8000FFF705FAE26A0F4B1B680E
:104AC000DB6A9A4211D901200D4B186038BD4FF0B6
:104AD000500383F31188BFF36F8FBFF34F8FFEE74F
:104AE00029460848FFF7EEF9E7E70020EEE700BFA8
:104AF000A8090020B009002014090020080900209E
:104B0000300A0020EC090020034B1B680360034BB4
:104B10001B684360704700BFE40900202C0A002096
:104B2000F8B5C8B10C460546F9B100F0BBFA1B4B0D
:104B300019686B68C81A2268B2F1FF3F26D0184E78
:104B400036682F68B74201D08B4224D9824215D8EB
:104B50000023236001241AE04FF0500383F31188EF
:104B6000BFF36F8FBFF34F8FFEE74FF0500383F318
:104B70001188BFF36F8FBFF34F8FFEE75B1A1344AB
:104B800023602846FFF7C0FF002400E0002400F067
:104B9000ABFA2046F8BD0124F9E700BF2C0A00203B
:104BA000E4090020014B01221A607047300A0020FE
:104BB000054B1B6833B1054B1B680BB100207047D8
:104BC0000220704701207047000A0020A809002039
:104BD00000284CD038B50446274B1B68834208D0C8
:104BE0004FF0500383F31188BFF36F8FBFF34F8FE4
:104BF000FEE7836C43B94FF0500383F31188BFF392
:104C00006F8FBFF34F8FFEE7013B8364C16A426C35
:104C100091422ED00BB1002038BD051D2846FFF76C
:104C200075F970B9E26A02EB82039B001349CB5815
:104C30003BB9012303FA02F211490B6823EA02038C
:104C40000B60606CE062C0F10703A361012404FA09
:104C500000F30B4A11680B43136000EB80002946F8
:104C6000064B03EB8000FFF72DF92046D4E7002028
:104C700070470020D0E700BF080900201409002079
:104C8000B0090020842801D003307047002070470D
:104C9000EFF30580003818BF0120704708B5FFF713
:104CA000FFFC002008BD2DE9F04387B004460F4605
:104CB0004569BDB18669AEB1D0F80480D0F80090E6
:104CC000B0F90800FFF7DEFF0296019500903B4621
:104CD000226949464046FFF773FC0590059807B0E6
:104CE000BDE8F08365682668D4F81080B4F9080040
:104CF000FFF7C8FF05AB019300903B461FFA88F20F
:104D000031462846FFF797FC0128E7D00020E6E768
:104D100008B500B90120FFF70DFE002008BD30B531
:104D200085B00446019100230393154602B901257D
:104D3000FFF7AEFFA8B1002303AA01A92046FFF7A1
:104D40003DFA012818D1039BC3B14FF0E0234FF087
:104D50008052C3F8042DBFF34F8FBFF36F8F002035
:104D600008E000232A4601A92046FFF763F901283D
:104D700006D1002005B030BDFF20FBE70020F9E799
:104D8000FF20F7E7124A12F0070F1ED0D11D21F0C5
:104D90000701C1F5004313440A460E480260002192
:104DA00041601344083B23F007030B48036059603C
:104DB0001960991A51601360084B1960084B19600B
:104DC000084B4FF000421A6070474FF40043E4E78D
:104DD000380A00204C8A0020340A0020408A002033
:104DE0003C8A0020388A0020164B1A461B688342F2
:104DF000FBD3516802EB010C844509D0416800EBFC
:104E0000010C634509D00360904219D010607047CF
:104E10004068014451601046F0E710B40A4C246821
:104E2000A3420BD05B681944416013681B680360A0
:104E3000904200D010605DF8044B70470460F7E7C3
:104E4000704700BF4C8A0020340A002070B5054628
:104E5000FFF760FC3B4B1B689BB13B4B1B681D4243
:104E600012D135B1083515F0070F02D025F007052E
:104E70000835D5B1354B1B68AB421AD3344A146898
:104E80001DE0FFF77FFFE8E7FFF7D8FC0026FBF700
:104E90003BFE16F0070F53D04FF0500383F31188F9
:104EA000BFF36F8FBFF34F8FFEE7FFF7C7FC0026FE
:104EB000EDE7FFF7C3FC0026E9E722461C466368DE
:104EC000AB4202D22368002BF7D11E4B1B68A342D2
:104ED00014D0166808362368136063685B1B102BB8
:104EE00014D9601910F0070F0CD04FF0500383F362
:104EF0001188BFF36F8FBFF34F8FFEE7FFF79EFC64
:104F00000026C4E743606560FFF76EFF62680F49E3
:104F10000B689B1A0B600F4909688B4201D20D493F
:104F20000B60094B1B6813436360002323600A4A2C
:104F3000136801331360FFF781FC002EA9D1A6E7A7
:104F4000304670BD340A0020388A00203C8A002098
:104F50004C8A0020408A0020448A0020002834D057
:104F600038B50446A0F1080550F8043C174A126809
:104F7000134208D14FF0500383F31188BFF36F8FB2
:104F8000BFF34F8FFEE750F8081C41B14FF05003BC
:104F900083F31188BFF36F8FBFF34F8FFEE723EAD0
:104FA000020340F8043CFFF7B5FB54F8041C084A20
:104FB00013680B4413602846FFF716FF054A136871
:104FC00001331360FFF73AFC38BD7047388A002080
:104FD0003C8A0020488A002082B0002301930D4BB8
:104FE0001B68B3F1FF3F08D04FF0500383F31188E3
:104FF000BFF36F8FBFF34F8FFEE74FF0500383F384
:105000001188BFF36F8FBFF34F8F019B002BFCD034
:1050100002B070470C00002008480068006880F368
:1050200008884FF0000080F3148862B661B6BFF3C1
:105030004F8FBFF36F8F00DF00BF000008ED00E06F
:10504000DFF80C00016841F4700101607047000056
:1050500088ED00E04FF0807340F8043C21F001013E
:1050600040F8081C054B40F80C3C40F8202C6FF031
:10507000020340F8243C4438704700BFD94F000871
:10508000074B19680868B0E8F04F80F30988BFF350
:105090006F8F4FF0000080F311887047AFF30080EE
:1050A000080900204FF0500383F31188BFF36F8F7E
:1050B000BFF34F8F0B4A136801331360012B00D0ED
:1050C00070474FF0E023D3F8043D13F0FF0FF7D003
:1050D0004FF0500383F31188BFF36F8FBFF34F8FEF
:1050E000FEE700BF0C000020094B1B6843B94FF0DE
:1050F000500383F31188BFF36F8FBFF34F8FFEE729
:10510000013B034A13600BB983F31188704700BF5A
:105110000C00002000000000000000000000000063
:10512000EFF30980BFF36F8F154B1A681EF0100F55
:1051300008BF20ED108A20E9F04F10602DE909002A
:105140004FF0500080F31188BFF34F8FBFF36F8F84
:10515000FFF716FC4FF0000080F3118809BC1968B6
:105160000868B0E8F04F1EF0100F08BFB0EC108ACE
:1051700080F30988BFF36F8F704700BFAFF30080E3
:105180000809002008B54FF0500383F31188BFF3DE
:105190006F8FBFF34F8FFFF7C5FA28B14FF0E023B1
:1051A0004FF08052C3F8042D002383F3118808BD0B
:1051B0004FF0E022002313619361054B1B68054902
:1051C000A1FB03139B09013B536107231361704744
:1051D00008000020D34D62104FF0E023D3F8002DDB
:1051E0003D4B9A421CD04FF0E023D3F8002D3B4BAF
:1051F0009A421ED030B583B0394B1A78D2B20192A0
:10520000FF221A701B78DBB28DF803309DF8033053
:1052100003F05003334A1370334B07221A601BE02C
:105220004FF0500383F31188BFF36F8FBFF34F8F9D
:10523000FEE74FF0500383F31188BFF36F8FBFF386
:105240004F8FFEE7284A1368013B13609DF8033037
:105250005B00DBB28DF803309DF8033013F0800F54
:10526000F0D1214B1B68032B08D04FF0500383F380
:105270001188BFF36F8FBFF34F8FFEE71B021A4AEF
:10528000136003F4E0631360019BDBB2144A1370F4
:105290004FF0E024D4F8203D43F47003C4F8203DDF
:1052A000D4F8203D43F07043C4F8203DFFF780FF61
:1052B00000250E4B1D60FFF7C3FED4F8343F43F0CA
:1052C0004043C4F8343FFFF7A7FEFFF759FBFFF751
:1052D00083FE284603B030BD71C20F4170C20F413A
:1052E00000E400E0548A0020588A00200C000020CE
:1052F000EFF305830F2B0FD9114A9B5CDBB2114AE8
:1053000012789A4208D94FF0500383F31188BFF303
:105310006F8FBFF34F8FFEE74FF0E023D3F80C3DC4
:1053200003F4E063084A1268934208D94FF050032F
:1053300083F31188BFF36F8FBFF34F8FFEE7704782
:10534000F0E300E0548A0020588A002008B5037872
:10535000DBB20B2B00D008BDD0F87C33002BFAD089
:105360009B699847F7E708B5D0F8C4230132C0F825
:10537000C423FFF7EBFF08BD08B5012180F8231314
:10538000C0F8E0130022D0F8D803FFF7C8FC08BD2E
:10539000002380F82333704710B5012180F82013D3
:1053A000002480F8214380F82243C0F8E01322460D
:1053B000D0F8D803FFF7B3FC204610BD70B5044603
:1053C000012680F82163002580F8205380F82353BC
:1053D000FBF7A8FE2179204600F019F861792046F4
:1053E00000F015F8C4F8E0632A463146D4F8D80333
:1053F000FFF795FC284670BD08B50121C0F8E01301
:105400000022D0F8D803FFF78AFC002008BD0F293E
:1054100006D8E03100EB81004368C3F30E0343601C
:1054200000207047DFF834D0FEF734FD0C480D49FA
:105430000D4A002302E0D458C4500433C4188C42EF
:10544000F9D30A4A0A4C002301E013600432A24255
:10545000FBD300F011F8FBF773F87047000003204E
:1054600000000020100000205C5500081000002003
:105470005C8A0020FEE7000070B50D4D0D4C641BEA
:10548000A4100026A64209D10B4D0C4C00F02EF8BA
:10549000641BA4100026A64205D170BD55F8043B3C
:1054A00098470136EEE755F8043B98470136F2E796
:1054B0005455000854550008545500085855000824
:1054C0000A44914200F1FF3300D1704710B511F842
:1054D000014B03F8014F9142F9D110BD024403463C
:1054E000934200D1704703F8011BF9E7F8B500BFFC
:1054F000F8BC08BC9E467047F8B500BFF8BC08BCB5
:045500009E4670470C
:1055040020550008F5040008000000000000000019
:1055140000100000000000000000000064656661E7
:10552400756C745461736B0000000000000000008F
:105534000102030406070809000000000102030435
:0855440049444C450000000041
:08554C00D4ACFF7F0100000058
:04555400D501000875
:04555800B101000895
:10555C0032010000100000000024F400AAAAAAAA3C
:040000050800542576
:00000001FF
