:020000040800F2
:100000000000032031F100082DB0000839B00008CD
:100010003FB0000845B000084BB0000800000000E9
:100020000000000000000000000000000D1C00089F
:1000300051B00008000000003D1D0008871D0008A9
:1000400081F1000881F1000881F1000881F10008C8
:1000500081F1000881F10008759B0008839B00086E
:10006000919B00089F9B0008AD9B0008F964000865
:1000700019650008396500085965000879650008A8
:1000800099650008B965000881F1000881F1000850
:1000900081F1000881F1000881F10008BB9B000894
:1000A00081F1000881F1000881F1000881F1000868
:1000B00081F1000881F1000881F1000881F1000858
:1000C00081F1000881F1000881F1000871AB00089E
:1000D00085AB000881F1000881F1000881F100087A
:1000E000E59B000881F1000881F1000881F100081A
:1000F00081F1000861B0000881F10008D9650008AD
:1001000081F1000881F1000881F1000899AB000835
:1001100081F1000881F1000881F1000881F10008F7
:10012000F965000819660008396600085966000874
:100130007966000881F1000881F1000881F100086A
:1001400081F1000881F1000881F1000881F10008C7
:1001500099660008B9660008D966000881F10008B0
:1001600081F1000881F1000881F1000881F10008A7
:1001700081F1000881F1000881F100080000000011
:1001800081F1000881F1000881F1000881F1000887
:1001900081F1000881F1000881F1000881F1000877
:0C01A00081F1000881F1000881F10008E5
:1001B00010B5054C237833B9044B13B10448AFF3A1
:1001C00000800123237010BD7C000020000000008F
:1001D000FCFD00080C4B43B10C480D4910B5AFF3C2
:1001E00000800C48036823B910BD0A48036833B97E
:1001F0007047094B002BF7D0BDE810401847064B5D
:10020000002BF5D0184700BF00000000FCFD0008DF
:10021000800000207C0000200000000080B58CB031
:1002200004AFF860B9603B601346FB80FB889B001D
:10023000184601F0E5FD78617B69002B0ED068203F
:1002400001F0DEFDF861FB69002B03D0FB697A69E0
:100250001A6305E0786901F099FE01E00023FB6173
:10026000FB69002B13D0FA8800230393FB690293E8
:10027000FB6A0193BB6A00933B68B968F86800F0B9
:100280000EF8F86900F099F80123BB6102E04FF025
:10029000FF33BB61BB6918462037BD4680BD80B5C2
:1002A00086B000AFF860B9607A603B60BB6A186BDB
:1002B0007B689B001A46A5210FF04BF9BB6A1A6BAD
:1002C0007B6803F18043013B9B0013443B613B6926
:1002D00023F007033B613B6903F00703002B01D0C8
:1002E00072B6FEE7BB68002B1FD000237B6112E0D3
:1002F000BA687B6913441978BA6A7B69134434334A
:100300000A461A70BA687B6913441B78002B06D022
:100310007B6901337B617B690F2BE9D900E000BF6A
:10032000BB6A002283F8432003E0BB6A002283F803
:1003300034203B6A042B01D904233B62BB6A3A6A2E
:10034000DA62BB6A0433184601F0CAFFBB6A18338D
:10035000184601F0C5FFBB6ABA6A1A613B6AC3F16D
:100360000502BB6A9A61BB6ABA6A5A62BB6A4433C5
:100370001422002118460FF0ECF8BB6A58330C2207
:10038000002118460FF0E5F8BB6A64330322002110
:1003900018460FF0DEF83A68F968386901F0F0FBAA
:1003A0000246BB6A1A607B6A002B02D07B6ABA6A7B
:1003B0001A6000BF1837BD4680BD80B582B000AF5F
:1003C000786001F083FC284B1B680133264A1360D8
:1003D000264B1B68002B09D1244A7B681360224BF3
:1003E0001B68012B10D100F077FF0DE0204B1B683C
:1003F000002B09D11D4B1B68DA6A7B68DB6A9A42C5
:1004000002D81A4A7B6813601A4B1B680133194AD9
:1004100013607B68DA6A184B1B689A4203D97B68C1
:10042000DB6A154A13607B68DA6A13469B00134443
:100430009B00124A1A447B6804331946104601F0A7
:100440005CFF01F057FC0A4B1B68002B08D0074BE0
:100450001B68DA6A7B68DB6A9A4201D201F024FCED
:1004600000BF0837BD4680BD700100209800002005
:100470007C0100208C010020780100209C000020DD
:1004800080B584B000AF786001F020FC7B68002B61
:1004900002D1274B1B6800E07B68FB60FB680433DC
:1004A000184601F087FFFB689B6A002B04D0FB68AD
:1004B0001833184601F07EFF1E4B1B6801331D4A9E
:1004C00013601B4B1B68FA689A420BD1FB6804331C
:1004D0001946194801F011FF184B1B680133174AE0
:1004E000136006E0164B1B68013B154A136000F0D1
:1004F0006FFF01F0FFFB0E4B1B68FA689A4202D0B7
:10050000F86800F055FF0F4B1B68002B0CD0084B10
:100510001B68FA689A4207D10B4B1B68002B01D06D
:1005200072B6FEE701F0C0FB00BF1037BD4680BDCC
:10053000980000208C010020440100205801002078
:10054000700100207C0100209801002080B586B059
:1005500000AF7860396000237B617B68002B01D19C
:1005600072B6FEE73B68002B01D172B6FEE7234B63
:100570001B68002B01D072B6FEE700F0ADFA204BED
:100580001B683B617B681A683B681344FB607B68AF
:100590001A683B699A420BD97B681A68FB689A42D1
:1005A00011D9FA683B699A420DD901237B610AE0AF
:1005B0007B681A68FB689A4203D8FA683B699A42DA
:1005C00001D901237B617B68FA681A607B69002B83
:1005D00006D0FA683B69D31A0021184601F07CFA6C
:1005E00000F088FAB860BB68002B01D101F05CFB19
:1005F0007B6918461837BD4680BD00BF98010020B2
:100600007401002080B584B000AF78600023FB60E7
:100610007B68002B0ED00C4B1B68002B01D072B6F0
:10062000FEE700F059FA0021786801F055FA00F071
:1006300061FAF860FB68002B01D101F035FB00BFC7
:100640001037BD4680BD00BF9801002080B584B042
:1006500000AF786001F03AFB7B68002B02D1074BBA
:100660001B6800E07B68FB60FB68DB6ABB6001F035
:1006700041FBBB6818461037BD4680BD980000207E
:1006800080B586B000AF786001F04EFB78617B6882
:10069000002B02D1074B1B6800E07B683B613B6984
:1006A000DB6AFB60786901F045FBFB681846183788
:1006B000BD4680BD9800002080B586B000AF786050
:1006C000396000237B613B68042B01D972B6FEE7D9
:1006D0003B68042B01D904233B6001F0F7FA7B68E7
:1006E000002B02D1334B1B6800E07B683B613B6908
:1006F000DB6AFB60FA683B689A4254D03A68FB6850
:100700009A420DD92B4B1B683A699A420FD0294B5C
:100710001B68DA6A3B689A4209D801237B6106E0CC
:10072000244B1B683A699A4201D101237B613B69E2
:10073000DB6ABB603B693A68DA623B699B69002B04
:1007400004DB3B68C3F105023B699A613B69596967
:10075000BA6813469B0013449B00174A13449942FE
:100760001CD13B690433184601F024FE3B69DA6A68
:10077000124B1B689A4203D93B69DB6A0F4A13602C
:100780003B69DA6A13469B0013449B000A4A1A44E9
:100790003B6904331946104601F0AFFD7B69002B1D
:1007A00001D001F081FA01F0A5FA00BF1837BD466B
:1007B00080BD00BF980000209C0000207801002030
:1007C00080B584B000AF786001F080FA7B68002BC0
:1007D00002D12F4B1B6800E07B68BB60BB68043311
:1007E000184601F0E7FDBB689B6A002B04D0BB688C
:1007F0001833184601F0DEFDBB680433194625485E
:1008000001F07BFD0023FB6010E0BA68FB68134435
:1008100064331B78DBB2012B05D1BA68FB68134443
:10082000643300221A70FB680133FB60FB68022B03
:10083000EBDD01F05FFA184B1B68002B05D001F0CF
:1008400045FA00F0C5FD01F055FA114B1B68BA6876
:100850009A4218D1104B1B68002B08D00F4B1B6815
:10086000002B01D072B6FEE701F01EFA0BE0094B37
:100870001A680B4B1B689A4203D1054B00221A6081
:1008800001E000F0CDFA00BF1037BD4680BD00BFCB
:10089000980000205C0100207C01002098010020CD
:1008A0007001002080B485B000AF78600023FB6049
:1008B0007B68BB607B68002B01D172B6FEE7BB682A
:1008C0005B690A4A93420AD1BB689B6A084A934211
:1008D00005D0BB689B6A002B01D10123FB60FB683C
:1008E00018461437BD465DF8047B70475C01002054
:1008F0003001002080B584B000AF78607B68FB6079
:100900007B68002B01D172B6FEE71E4B1B68FA68AC
:100910009A4232D0FB68002B2FD001F0D7F9F8684B
:10092000FFF7C0FF0346002B25D0FB6804331846B1
:1009300001F040FDFB68DA6A134B1B689A4203D949
:10094000FB68DB6A104A1360FB68DA6A13469B0097
:1009500013449B000D4A1A44FB68043319461046A1
:1009600001F0CBFCFB68DA6A064B1B68DB6A9A4233
:1009700001D301F099F901F0BDF900BF1037BD4670
:1009800080BD00BF98000020780100209C0000205E
:1009900080B586B000AF786000237B617B683B61E7
:1009A0007B68002B01D172B6FEE701F0BDF9F8605B
:1009B0003869FFF777FF0346002B33D01D4B1B68C8
:1009C000002B29D13B69DA6A1B4B1B68DB6A9A4210
:1009D00004D301237B61194B01221A603B69043364
:1009E000184601F0E7FC3B69DA6A154B1B689A422E
:1009F00003D93B69DB6A124A13603B69DA6A134622
:100A00009B0013449B000F4A1A443B690433194668
:100A1000104601F072FC05E03B69183319460A489C
:100A200001F06BFCF86801F085F97B69184618370E
:100A3000BD4680BD98010020980000208401002060
:100A4000780100209C0000203001002080B584B097
:100A500002AF144B0193002300930023802212491C
:100A60001248FFF7DBFB78607B68012B0DD172B673
:100A70000F4B4FF0FF321A600E4B01221A600E4BE3
:100A800000221A6001F0DFF805E07B68B3F1FF3F58
:100A900001D172B6FEE7094B1B6800BF0837BD469F
:100AA00080BD00BF94010020340101081D12000820
:100AB000900100207C010020740100200000002033
:100AC00080B500AF72B6034B00221A6001F0DCF86B
:100AD00000BF80BD7C01002080B400AF044B1B68C8
:100AE0000133034A136000BFBD465DF8047B7047C5
:100AF0009801002080B584B000AF0023FB60002384
:100B0000BB603A4B1B68002B01D172B6FEE701F0C7
:100B1000DDF8364B1B68013B344A1360334B1B68CE
:100B2000002B5CD1324B1B68002B58D02FE0314B8F
:100B3000DB68DB68FB60FB681833184601F03AFCA1
:100B4000FB680433184601F035FCFB68DA6A2A4B6F
:100B50001B689A4203D9FB68DB6A274A1360FB686B
:100B6000DA6A13469B0013449B00244A1A44FB682C
:100B700004331946104601F0C0FBFB68DA6A204BCB
:100B80001B68DB6A9A4202D31E4B01221A60194B82
:100B90001B68002BCBD1FB68002B01D000F018FCA8
:100BA000194B1B687B607B68002B10D000F096F817
:100BB0000346002B02D0134B01221A607B68013BD5
:100BC0007B607B68002BF1D10F4B00221A600D4B2C
:100BD0001B68002B03D00123BB6001F065F801F016
:100BE00089F8BB6818461037BD4680BD98010020C3
:100BF0007001002030010020780100209C000020BE
:100C000098000020840100208001002080B483B07F
:100C100000AF054B1B687B607B6818460C37BD46F0
:100C20005DF8047B704700BF7401002080B483B07E
:100C300000AF00237B60054B1B683B603B68184698
:100C40000C37BD465DF8047B704700BF740100207F
:100C500080B400AF034B1B681846BD465DF8047BAB
:100C6000704700BF7001002080B485B000AF78608D
:100C70007B68002B02D1094B1B6800E07B68FB609E
:100C8000FB68002B01D172B6FEE7FB6834331846CF
:100C90001437BD465DF8047B704700BF9800002004
:100CA00080B584B000AF78600A4B1B68002B01D080
:100CB00072B6FEE7FFF710FF074B1A687B68134414
:100CC000054A1360FFF716FFF860FB6818461037F7
:100CD000BD4680BD980100208001002080B586B00F
:100CE00000AF00237B61434B1B68002B77D1424B45
:100CF0001B6801333B61404A3B6913603B69002B31
:100D000017D13E4B1B681B68002B01D072B6FEE763
:100D10003A4B1B68FB603A4B1B68384A1360384AF1
:100D2000FB681360374B1B680133364A136000F0D1
:100D30004FFB354B1B683A699A4249D32F4B1B68CE
:100D40001B68002B04D1304B4FF0FF321A603FE09C
:100D50002A4B1B68DB68DB68BB60BB685B687B6039
:100D60003A697B689A4203D2274A7B6813602FE076
:100D7000BB680433184601F01DFBBB689B6A002B5F
:100D800004D0BB681833184601F014FBBB68DA6A5C
:100D90001E4B1B689A4203D9BB68DB6A1B4A13606F
:100DA000BB68DA6A13469B0013449B00184A1A4436
:100DB000BB6804331946104601F09FFABB68DA6A33
:100DC000144B1B68DB6A9A42B8D301237B61B5E7F9
:100DD000114B1B68002B07D001237B6104E00F4BF4
:100DE0001B6801330D4A13607B6918461837BD46EE
:100DF00080BD00BF98010020740100202801002060
:100E00002C010020880100209001002078010020A2
:100E10009C00002098000020840100208001002018
:100E200080B584B000AF364B1B68002B03D0354B28
:100E300001221A605FE0334B00221A60324B1B68BC
:100E40001B6BBB604FF0A5337B60BB681A687B6887
:100E50009A4211D1BB6804331A687B689A420BD15D
:100E6000BB6808331A687B689A4205D1BB680C33AB
:100E70001A687B689A4208D0234B1A68224B1B6879
:100E800034331946104602F087F9204B1B68FB608B
:100E900007E0FB68002B01D172B6FEE7FB68013B5F
:100EA000FB601B49FA6813469B0013449B000B44EC
:100EB0001B68002BEDD0FA6813469B0013449B007F
:100EC000134A13443B603B685B685A683B685A604E
:100ED0003B685A683B6808339A4204D13B685B68B8
:100EE0005A683B685A603B685B68DB68064A136077
:100EF000064AFB68136000BF1037BD4680BD00BFC7
:100F00009801002084010020980000207801002032
:100F10009C00002080B582B000AF786039607B68AB
:100F2000002B01D172B6FEE7074B1B681833194638
:100F3000786801F006FA0121386800F0CDFD00BFA5
:100F40000837BD4680BD00BF9800002080B584B042
:100F500000AFF860B9607A60FB68002B01D172B60F
:100F6000FEE70D4B1B68002B01D172B6FEE70B4B61
:100F70001B68BA6842F000429A61084B1B6818333C
:100F80001946F86801F0B9F90121786800F0A4FD6C
:100F900000BF1037BD4680BD98010020980000209A
:100FA00080B584B000AF78607B68DB68DB68BB60CD
:100FB000BB68002B01D172B6FEE7BB681833184638
:100FC00001F0F8F91D4B1B68002B1DD1BB680433E1
:100FD000184601F0EFF9BB68DA6A194B1B689A42B0
:100FE00003D9BB68DB6A164A1360BB68DA6A13462A
:100FF0009B0013449B00134A1A44BB6804331946F0
:10100000104601F07AF905E0BB68183319460E481E
:1010100001F073F9BB68DA6A0C4B1B68DB6A9A4211
:1010200005D90123FB600A4B01221A6001E000236D
:10103000FB60FB6818461037BD4680BD9801002054
:10104000780100209C000020300100209800002042
:101050008401002080B584B000AF78603960204BF7
:101060001B68002B01D172B6FEE73B6843F00042DB
:101070007B681A607B68DB68FB60FB68002B01D132
:1010800072B6FEE7786801F095F9FB6804331846FC
:1010900001F090F9FB68DA6A124B1B689A4203D997
:1010A000FB68DB6A0F4A1360FB68DA6A13469B0031
:1010B00013449B000C4A1A44FB680433194610463B
:1010C00001F01BF9FB68DA6A084B1B68DB6A9A427D
:1010D00002D9074B01221A6000BF1037BD4680BD00
:1010E00098010020780100209C000020980000203A
:1010F0008401002080B582B000AF78607B68002B4F
:1011000001D172B6FEE700F0E1FD074B1A687B687B
:101110001A60064B1A687B685A6000F0EBFD00BF4E
:101120000837BD4680BD00BF880100207401002043
:1011300080B483B000AF7860064B1A687B681A6091
:10114000054B1A687B685A6000BF0C37BD465DF8D6
:10115000047B7047880100207401002080B586B0B0
:1011600000AF786039607B68002B01D172B6FEE772
:101170003B68002B01D172B6FEE700F0A7FD1F4BC4
:101180001B683B617B685B683A69D31AFB603B680C
:101190001B68B3F1FF3F02D100237B6126E07B682F
:1011A0001A68174B1B689A420AD07B685A683B69D9
:1011B0009A4205D801237B613B6800221A6015E042
:1011C0003B681A68FB689A420BD93B681A68FB684F
:1011D000D21A3B681A607868FFF7AAFF00237B6188
:1011E00004E03B6800221A6001237B6100F082FD6D
:1011F0007B6918461837BD4680BD00BF74010020CA
:101200008801002080B400AF034B01221A6000BFA8
:10121000BD465DF8047B70478401002080B582B034
:1012200000AF786000F098F8044B1B68012B01D9DF
:1012300000F03AFD01F0A8FFF4E700BF9C00002099
:1012400080B487B000AFF860B9607A60BB68042BE7
:1012500013DCFB68002B02D10B4B1B6800E0FB6822
:101260007B617B69002B01D172B6FEE77A69BB68AE
:1012700010339B0013447A685A6000BF1C37BD4688
:101280005DF8047B704700BF9800002080B485B0F3
:1012900000AF786039600023FB603B68042B0FDCF3
:1012A0007B68002B02D10B4B1B6800E07B68BB60A6
:1012B000BA683B6810339B0013445B68FB6001E035
:1012C0000023FB60FB6818461437BD465DF8047BBD
:1012D000704700BF9800002080B582B000AF0023A7
:1012E0007B600CE07A6813469B0013449B00124A13
:1012F0001344184600F0D4FF7B6801337B607B68A1
:10130000042BEFD90D4800F0CBFF0D4800F0C8FFCB
:101310000C4800F0C5FF0C4800F0C2FF0B4800F07D
:10132000BFFF0B4B054A1A600A4B054A1A6000BF03
:101330000837BD4680BD00BF9C0000200001002092
:101340001401002030010020440100205C01002035
:10135000280100202C01002080B582B000AF19E0E8
:1013600000F0B4FC0F4BDB68DB687B607B68043308
:10137000184601F01FF80C4B1B68013B0A4A13602A
:101380000A4B1B68013B094A136000F0B3FC786804
:1013900000F00EF8054B1B68002BE1D100BF0837A9
:1013A000BD4680BD4401002070010020580100208E
:1013B00080B582B000AF78607B681B6B184600F088
:1013C000E5FD786800F0E2FD00BF0837BD4680BD4E
:1013D00080B400AF0A4B1B681B68002B04D1094B7B
:1013E0004FF0FF321A6005E0054B1B68DB681B6895
:1013F000044A136000BFBD465DF8047B704700BF20
:10140000280100209001002080B483B000AF054B7C
:101410001B687B607B6818460C37BD465DF8047B13
:10142000704700BF9800002080B483B000AF0B4B22
:101430001B68002B02D101237B6008E0084B1B686E
:10144000002B02D102237B6001E000237B607B68DC
:1014500018460C37BD465DF8047B70477C010020C0
:101460009801002080B483B000AF094B1B689B69D2
:101470007B60074B1B68064A1268D26AC2F10502FC
:101480009A617B6818460C37BD465DF8047B70474F
:101490009800002080B586B000AFF860B9607A602F
:1014A000FB68022B01D972B6FEE700F00FFC234B5C
:1014B0001B68FA68163253F82230002B0FD11F4BED
:1014C0001A68FB681344643301221A707B68002B8E
:1014D00005D00121786800F0FFFA00F0E5FB00F08C
:1014E00009FC00F0F3FB154B1B68FA68163253F841
:1014F00022307B617B69002B12D0BB68002B07D0A8
:101500000E4B1B68FA681632002143F8221007E0E0
:101510000A4B1B687A69511EFA68163243F822108A
:10152000064B1A68FB681344643300221A7000F0FB
:10153000E1FB7B6918461837BD4680BD9800002046
:1015400080B586B000AFF860B9607A603B60FB6838
:10155000022B01D972B6FEE700F0B8FB2E4B1A68D9
:10156000FB68134464331B78DBB2022B1CD02A4B7C
:101570001B68FA68163253F82210BA68D243114039
:10158000FA68163243F82210234B1A68FB6813449A
:10159000643301221A703B6A002B05D00121386A9E
:1015A00000F09AFA00F080FB00F0A4FB00F08EFB44
:1015B0003B68002B07D0184B1B68FA68163253F8AB
:1015C00022203B681A60144B1A68FB68134464338A
:1015D0001B78DBB2022B02D000237B610EE00E4BA6
:1015E0001B68FA68163253F822107A68D243114009
:1015F000FA68163243F8221001237B61064B1A6801
:10160000FB681344643300221A7000F073FB7B699B
:1016100018461837BD4680BD9800002080B588B0B8
:1016200000AFF860B9607A60FB700123FB61BB68B2
:10163000022B01D972B6FEE7FB68002B01D172B60E
:10164000FEE7FB68BB6100F041FBBB6A002B06D0E4
:10165000BB69BA68163253F82220BB6A1A60BA69AD
:10166000BB68134464331B78FB75BA69BB681344C9
:10167000643302221A70FB78042B3BD801A252F883
:1016800023F000BF0117000899160008B5160008DE
:10169000CD160008DB160008BB69BA68163253F88D
:1016A00022207B6842EA0301BB69BA68163243F81C
:1016B000221028E0BB69BA68163253F82230591C50
:1016C000BB69BA68163243F822101CE0BB69BA68DD
:1016D0001632796843F8221015E0FB7D022B06D004
:1016E000BB69BA681632796843F822100BE0002310
:1016F000FB6108E01F4B1B68002B03D072B6FEE7AE
:1017000000BF00E000BFFB7D012B2BD1BB69043380
:10171000184600F04FFEBB69DA6A174B1B689A4205
:1017200003D9BB69DB6A144A1360BB69DA6A1346E2
:101730009B0013449B00114A1A44BB6904331946A9
:10174000104600F0DAFDBB699B6A002B01D072B62F
:10175000FEE7BB69DA6A0A4B1B68DB6A9A4201D969
:1017600000F0A2FA00F0C6FAFB6918462037BD4621
:1017700080BD00BF74010020780100209C00002083
:101780009800002080B588B000AFF860B9607A603A
:10179000FB700123FB61FB68002B01D172B6FEE7F1
:1017A000BB68022B01D972B6FEE7FB68BB6100F093
:1017B000BBFA7861BB6A002B06D0BB69BA681632E7
:1017C00053F82220BB6A1A60BA69BB6813446433B9
:1017D0001B78FB74BA69BB681344643302221A7025
:1017E000FB78042B3AD801A252F823F069180008BC
:1017F000011800081D1800083518000843180008D3
:10180000BB69BA68163253F822207B6842EA0301AA
:10181000BB69BA68163243F8221028E0BB69BA687F
:10182000163253F82230591CBB69BA68163243F895
:1018300022101CE0BB69BA681632796843F822109E
:1018400015E0FB7C022B06D0BB69BA6816327968BA
:1018500043F822100BE00023FB6108E0284B1B68D3
:10186000002B03D072B6FEE700BF00E000BFFB7C98
:10187000012B3DD1BB699B6A002B01D072B6FEE7FC
:10188000204B1B68002B1DD1BB690433184600F0A8
:1018900091FDBB69DA6A1C4B1B689A4203D9BB698C
:1018A000DB6A194A1360BB69DA6A13469B0013446A
:1018B0009B00164A1A44BB6904331946104600F0CF
:1018C0001CFD05E0BB6918331946114800F015FDF1
:1018D000BB69DA6A0F4B1B68DB6A9A4208D9FB6A5C
:1018E000002B02D0FB6A01221A600B4B01221A6006
:1018F000786900F01FFAFB6918462037BD4680BDA5
:101900007401002098010020780100209C00002034
:1019100030010020980000208401002080B588B0AC
:1019200000AFF860B9607A60FB68002B01D172B635
:10193000FEE7BB68022B01D972B6FEE7FB68FB61CC
:1019400000F0F2F9B861FA69BB68134464331B789C
:10195000FB75FA69BB681344643302221A70FB6991
:10196000BA68163253F82230591CFB69BA6816322D
:1019700043F82210FB7D012B3DD1FB699B6A002BB4
:1019800001D072B6FEE71F4B1B68002B1DD1FB690F
:101990000433184600F00EFDFB69DA6A1A4B1B6827
:1019A0009A4203D9FB69DB6A174A1360FB69DA6A5A
:1019B00013469B0013449B00144A1A44FB690433EA
:1019C0001946104600F099FC05E0FB6918331946EA
:1019D0000F4800F092FCFB69DA6A0E4B1B68DB6A69
:1019E0009A4208D97B68002B02D07B6801221A60DA
:1019F000094B01221A60B86900F09CF900BF20373A
:101A0000BD4680BD98010020780100209C00002088
:101A100030010020980000208401002080B584B0AF
:101A200000AF786039603B68022B01D972B6FEE7DF
:101A30007B68002B02D1104B1B6800E07B68BB6009
:101A400000F044F9BA683B68134464331B78DBB296
:101A5000022B08D1BA683B681344643300221A7021
:101A60000123FB6001E00023FB6000F043F9FB6809
:101A700018461037BD4680BD9800002080B586B05E
:101A800000AFF860B9607A60FB68002B02D1114B9F
:101A90001B6800E0FB687B6100F018F97B69BA689D
:101AA000163253F822303B617B69BA68163253F81C
:101AB00022207B68DB4302EA03017B69BA681632A5
:101AC00043F8221000F016F93B6918461837BD4656
:101AD00080BD00BF9800002080B584B000AF786062
:101AE0003960214B1B68FB60204B1B680433184690
:101AF00000F060FC7B68B3F1FF3F0AD13B68002B2C
:101B000007D01A4B1B6804331946194800F0F5FB3F
:101B100026E0FA687B681344BB60144B1B68BA6804
:101B20005A60BA68FB689A4209D2124B1A680F4B86
:101B30001B6804331946104600F003FC10E00E4BFE
:101B40001A680A4B1B6804331946104600F0F9FB6B
:101B50000A4B1B68BA689A4202D2084ABB681360F3
:101B600000BF1037BD4680BD7401002098000020E2
:101B70005C0100202C0100202801002090010020A1
:101B800080B485B000AFF860B9607A60FB68043B50
:101B9000FB60FB684FF080721A60FB68043BFB60DF
:101BA000BA68FB681A60FB68043BFB60094AFB6883
:101BB0001A60FB68143BFB607A68FB681A60FB687C
:101BC000203BFB60FB6818461437BD465DF8047B7C
:101BD000704700BFD91B000880B483B000AF00235A
:101BE0007B60094B1B68B3F1FF3F01D072B6FEE783
:101BF00072B600BF7B68002BFCD000BF0C37BD461F
:101C00005DF8047B704700BF0400002080B400AF83
:101C100000BFBD465DF8047B7047094A1368186829
:101C2000203080F30988022080F31488BFF36F8F7F
:101C30003FBCAE4608BC04BC62B61847AFF3008098
:101C40009800002000BF80B500AF0D4A0C4B1B6808
:101C500043F47F0313600A4A094B1B6843F07F4338
:101C6000136000F0A9F8074B00221A60FFF7D5FFB8
:101C7000FFF7D6F8FFF7B0FF0023184680BD00BF7E
:101C800020ED00E00400002080B400AF054B1B688D
:101C9000B3F57A7F01D072B6FEE700BFBD465DF8AE
:101CA000047B70470400002080B400AF064B4FF067
:101CB00080521A60BFF34F8FBFF36F8F00BFBD46D6
:101CC0005DF8047B704700BF04ED00E080B400AF16
:101CD00072B6074B1B680133054A1360BFF34F8F81
:101CE000BFF36F8F00BFBD465DF8047B704700BF38
:101CF0000400002080B400AF0A4B1B68002B01D108
:101D000072B6FEE7074B1B68013B064A1360054BA2
:101D10001B68002B00D162B600BFBD465DF8047B96
:101D2000704700BF04000020EFF3108072B67047C8
:101D300000BF184680F31088704700BFEFF309809A
:101D40000F4B1A6820381060F0C044464D46564686
:101D50005F46F0C008B572B6FFF762F862B60CBC19
:101D6000116808681030F0C8A046A946B246BB46C4
:101D700080F309882038F0C8184700BFAFF300800F
:101D80009800002000BF80B582B000AFFFF7CCFF05
:101D90007860FEF7A3FF0346002B03D0054B4FF0FE
:101DA00080521A607868FFF7C5FF00BF0837BD464C
:101DB00080BD00BF04ED00E080B400AF0B4B0022FB
:101DC0001A600B4B00221A600A4A0B4B1B680B4926
:101DD000A1FB03139B09013B1360044B07221A600C
:101DE00000BFBD465DF8047B704700BF10E000E017
:101DF00018E000E014E000E010000020D34D621075
:101E000080B586B000AF78600023FB60FEF764FE0B
:101E1000584B1B68002B01D100F027F9564B1A686C
:101E20007B681340002B40F096807B68002B25D008
:101E300008227B681A447B689A421FD908227B6873
:101E400013447B607B6803F00703002B19D07B6889
:101E500023F0070303F108027B689A420BD97B68E1
:101E600023F0070308337B607B6803F00703002B34
:101E700007D072B6FEE700237B6002E000237B60A0
:101E800000E000BF7B68002B65D03C4B1B687A6884
:101E90009A4260D83A4B3B61394B1B687B6104E046
:101EA0007B693B617B691B687B617B695A687B68E6
:101EB0009A4203D27B691B68002BF1D12D4B1B6822
:101EC0007A699A4247D03B691B6808221344FB6039
:101ED0007B691A683B691A607B695A687B68D21A09
:101EE00008235B009A4216D97A697B681344BB6069
:101EF000BB6803F00703002B01D072B6FEE77B69D5
:101F00005A687B68D21ABB685A607B697A685A60E3
:101F1000B86800F00DF9194B1A687B695B68D31A31
:101F2000164A1360154B1A68164B1B689A4203D267
:101F3000124B1B68134A13607B695A680E4B1B686F
:101F40001A437B695A607B6900221A600E4B1B683A
:101F500001330D4A1360FEF7CDFDFB6803F0070364
:101F6000002B01D072B6FEE7FB6818461837BD4655
:101F700080BD00BFA4150020B8150020A8150020C2
:101F80009C150020AC150020B015002080B584B051
:101F900000AF78607B68FB607B68002B3BD0082338
:101FA0005B42FA681344FB60FB68BB60BB685A681D
:101FB0001B4B1B681340002B01D172B6FEE7BB68B8
:101FC0001B68002B01D072B6FEE7BB685A68144B41
:101FD0001B681340002B1ED0BB681B68002B1AD156
:101FE000BB685A680E4B1B68DB431A40BB685A60DB
:101FF000FEF772FDBB685A680A4B1B681344094A16
:102000001360B86800F094F8074B1B680133064A68
:102010001360FEF76FFD00BF1037BD4680BD00BFE7
:10202000B8150020A8150020B415002080B400AF1A
:10203000034B1B681846BD465DF8047B704700BF24
:10204000A815002080B400AF034B1B681846BD469E
:102050005DF8047B704700BFAC15002080B400AF72
:1020600000BFBD465DF8047B704780B485B000AF0B
:102070004FF4A053BB60284BFB60FB6803F00703E1
:10208000002B0CD0FB680733FB60FB6823F00703D1
:10209000FB60BA68FB68D31A1F4A1344BB60FB6835
:1020A0007B601E4A7B6813601C4B00225A607A6872
:1020B000BB681344FB600822FB689B1AFB60FB684B
:1020C00023F00703FB60FB68154A1360144B1B6881
:1020D00000225A60124B1B6800221A607B683B602A
:1020E0003B68FA68D21A3B685A600D4B1A683B6825
:1020F0001A603B685B680B4A13603B685B680A4A7E
:1021000013600A4B4FF000421A6000BF1437BD46FF
:102110005DF8047B704700BF9C0100209C150020E7
:10212000A4150020AC150020A8150020B81500202B
:1021300080B485B000AF7860284BFB6002E0FB689C
:102140001B68FB60FB681A687B689A42F7D3FB68E0
:10215000BB60FB685B68BA681A447B689A4208D126
:10216000FB685A687B685B681A44FB685A60FB68C6
:102170007B607B68BB607B685B68BA681A44FB68FD
:102180001B689A4218D1FB681A68154B1B689A4263
:102190000DD07B685A68FB681B685B681A447B68D3
:1021A0005A60FB681B681A687B681A6008E00C4B71
:1021B0001A687B681A6003E0FB681A687B681A601B
:1021C000FA687B689A4202D0FB687A681A6000BF9E
:1021D0001437BD465DF8047B704700BF9C15002096
:1021E000A415002080B586B000AF786000233B6165
:1021F0000023FB604FF0FF33BB60FEF76DFC224B0A
:102200001B687B617B69002B1AD03B6901333B6102
:102210007B695A68FB689A4202D97B695B68FB60FC
:102220007B695A68BB689A4202D27B695B68BB6073
:102230007B691B687B61154B1B687A699A42E4D104
:10224000FEF758FC7B68FA685A607B68BA689A6047
:102250007B683A69DA60FFF739FD0D4B1A687B68D5
:102260001A600C4B1A687B685A610B4B1A687B68C2
:102270009A610A4B1A687B681A61FFF73BFD00BF41
:102280001837BD4680BD00BF9C150020A415002056
:10229000A8150020B0150020B4150020AC150020B2
:1022A00080B483B000AF78607B6803F108027B687C
:1022B0005A607B684FF0FF329A607B6803F1080236
:1022C0007B68DA607B6803F108027B681A617B68CF
:1022D00000221A6000BF0C37BD465DF8047B7047D2
:1022E00080B483B000AF78607B6800221A6100BFC1
:1022F0000C37BD465DF8047B704780B485B000AFF5
:10230000786039607B685B68FB603B68FA685A609C
:10231000FB689A683B689A60FB689B683A685A60F9
:10232000FB683A689A603B687A681A617B681B6848
:102330005A1C7B681A6000BF1437BD465DF8047BE9
:10234000704780B485B000AF786039603B681B6827
:10235000BB60BB68B3F1FF3F03D17B681B69FB60C7
:102360000CE07B680833FB6002E0FB685B68FB60A5
:10237000FB685B681A68BB689A42F6D9FB685A68C2
:102380003B685A603B685B683A689A603B68FA68E9
:102390009A60FB683A685A603B687A681A617B68A1
:1023A0001B685A1C7B681A6000BF1437BD465DF875
:1023B000047B704780B485B000AF78607B681B6990
:1023C000FB607B685B687A6892689A607B689B6850
:1023D0007A6852685A60FB685A687B689A4203D1EF
:1023E0007B689A68FB685A607B6800221A61FB6808
:1023F0001B685A1EFB681A60FB681B681846143776
:10240000BD465DF8047B704700000000000000003E
:1024100001F0FF01102A2BDB10F0070F08D010F895
:10242000013B013A8B422DD010F0070F42B3F6D199
:10243000F0B441EA012141EA014122F007047FF0B2
:1024400000070023F0E80256083C85EA010586EA09
:10245000010685FA47F5A3FA87F586FA47F6A5FA45
:1024600087F68EB9EED1F0BC01F0FF0102F0070251
:1024700032B110F8013B013A83EA010313B1F8D1FC
:102480000020704701387047002D06BF35460338DD
:10249000073815F0010F07D1013015F4807F02BF16
:1024A000013015F4C03F0130F0BC0138704700BF67
:1024B00053B94AB9002908BF00281CBF4FF0FF31AB
:1024C0004FF0FF3000F07AB9ADF1080C6DE904CEA1
:1024D00000F006F8DDF804E0DDE9022304B07047FF
:1024E0002DE9F0478C460D460446089E002B51D13D
:1024F0008A4217466DD9B2FA82FEBEF1000F0BD0A8
:10250000CEF1200C01FA0EF520FA0CFC02FA0EF7BF
:102510004CEA050C00FA0EF44FEA174A250CBCFBF6
:10252000FAF81FFA87F90AFB18CC45EA0C4508FBB4
:1025300009F3AB420AD9ED1908F1FF3280F023818B
:10254000AB4240F22081A8F102083D44ED1AA4B24A
:10255000B5FBFAF00AFB105544EA054400FB09F903
:10256000A14509D9E41900F1FF3380F00A81A145A2
:1025700040F2078102383C44A4EB090440EA0840D9
:102580000021002E61D024FA0EF400233460736021
:10259000BDE8F0878B4207D9002E54D0002186E891
:1025A00021000846BDE8F087B3FA83F1002940F026
:1025B0008E80AB4202D3824200F2FA80841A65EB2D
:1025C00003050120AC46002E3FD086E81010BDE880
:1025D000F08712B90127B7FBF2F7B7FA87FEBEF111
:1025E000000F34D1EB1B3A0C1FFA87FC0121B3FB1F
:1025F000F2F8250C02FB183345EA03450CFB08F3FF
:10260000AB4207D9ED1908F1FF3002D2AB4200F21C
:10261000D1808046ED1AA3B2B5FBF2F002FB105553
:1026200043EA05440CFB00FCA44507D9E41900F17A
:10263000FF3302D2A44500F2B8801846A4EB0C0484
:1026400040EA08409DE731463046BDE8F087CEF1CC
:10265000200405FA0EF307FA0EF720FA04F83A0CF4
:1026600025FA04F448EA0308B4FBF2F14FEA1845EE
:1026700002FB11441FFA87FC45EA044501FB0CF3F9
:10268000AB4200FA0EF409D9ED1901F1FF3080F0E8
:102690008A80AB4240F2878002393D44EB1A1FFA30
:1026A00088F5B3FBF2F002FB103345EA034500FB6B
:1026B0000CF3AB4207D9ED1900F1FF386FD2AB42F2
:1026C0006DD902383D44EB1A40EA01418FE7C1F170
:1026D000200722FA07F88B4005FA01F448EA0303C1
:1026E00020FA07FE4FEA134CFD404EEA040EB5FBFC
:1026F000FCF94FEA1E440CFB19551FFA83F844EA13
:10270000054509FB08F4AC4202FA01F200FA01FAAD
:1027100008D9ED1809F1FF3043D2AC4241D9A9F1F3
:1027200002091D442D1B1FFA8EFEB5FBFCF00CFBAD
:1027300010554EEA054400FB08F8A04507D9E418F7
:1027400000F1FF3529D2A04527D902381C4440EAC0
:102750000940A4EB0804A0FB02894C45C6464D463F
:1027600015D312D056B1BAEB0E0364EB050404FA8C
:1027700007F7CB401F43CC40376074600021BDE8B1
:10278000F0871846F8E69046E0E6C245EAD2B8EB94
:10279000020E69EB03050138E4E72846D7E7404617
:1027A00091E78146BEE7014678E702383C4445E7B9
:1027B000084608E7A8F102083D442BE7704700BF30
:1027C00080B483B000AF786039603B6818460C373E
:1027D000BD465DF8047B704780B483B000AF78607D
:1027E0007B6818460C37BD465DF8047B704780B4A3
:1027F00083B000AF78607B6818460C37BD465DF843
:10280000047B704780B483B000AF78607B6800229F
:102810009A607B6818460C37BD465DF8047B7047AC
:1028200080B582B000AF78607B689B68002B05D0D4
:102830007B689B6878687968032298477B681846AC
:102840000837BD4680BD80B483B000AF78607B6838
:102850009B68002B0CBF01230023DBB218460C370A
:10286000BD465DF8047B704780B483B000AF03467B
:102870003960FB713B685AB297F9073013405BB27D
:10288000DBB218460C37BD465DF8047B704780B458
:1028900083B000AF78600B46FB707B68FA781A70E3
:1028A0007B6818460C37BD465DF8047B704780B5E1
:1028B00082B000AF78600B46FB707B68FA781146F7
:1028C0001846FFF7E4FF7B6818460837BD4680BD11
:1028D00080B483B000AF78607B6818460C37BD4683
:1028E0005DF8047B704780B582B000AF78607B688C
:1028F0001846FFF795FF7B6818460837BD4680BD30
:1029000080B582B000AF7860084611461A4603468B
:10291000FB700B46BB7013467B707868FFF7D8FFDF
:102920007B68FA781A707B68BA785A707B687A7814
:102930009A707B683A7CDA707B6818460837BD4627
:1029400080BD80B582B000AF78607B681846FFF725
:1029500067FF7B6818460837BD4680BD80B584B0E8
:1029600000AFF8607B600B46FB721346BB72F868E1
:10297000FFF7AEFFFB68FA7A1A70FB68BA7A5A70F2
:10298000FB687A685A60FB6818461037BD4680BD00
:1029900080B582B000AF78600E4A7B681A607B68B1
:1029A00003F5C673184601F041FD7B6803F5947387
:1029B000184603F079F87B68C433184603F074F8BE
:1029C0007B685833184607F079FA7B681846083751
:1029D000BD4680BD7C01010880B582B000AF786043
:1029E0007868FFF7D5FF4FF4EC7178680CF0DEFBE8
:1029F0007B6818460837BD4680BD000080B500AF33
:102A0000054800F010FC0346002B02D0024800F0FD
:102A10001AFC00BF80BD00BFC015002080B500AF0C
:102A2000054800F000FC0346002B02D0024800F0ED
:102A30000AFC00BF80BD00BFD015002080B500AFEC
:102A4000054800F0F0FB0346002B02D0024800F0DE
:102A5000FAFB00BF80BD00BFE015002080B500AFCD
:102A6000054800F0E0FB0346002B02D0024800F0CE
:102A7000EAFB00BF80BD00BFF015002080B582B02A
:102A800000AF78600B46FB707B681B68FA781146D4
:102A9000184600F0B7FA00BF0837BD4680BD0000F9
:102AA000B0B58CB004AF7860484A7B681A607B6828
:102AB000181D474A00230093002306CA06F02DFA8A
:102AC0007B6803F11000434A00230093002306CAE9
:102AD00006F023FA7B6803F11C003F4A00230093B1
:102AE000002306CA06F019FA7B6803F128003B4A66
:102AF00000230093002306CA06F00FFA7B6803F157
:102B00003400374A00230093012306CA06F005FA71
:102B10007B6803F14000334A002306CA06F020FA1E
:102B20007B6803F14C00304A002306CA06F018FA0D
:102B30007B6858330122FA7307F10F0211461846D9
:102B400007F06CF97B68C4330B21184602F07CFF58
:102B50007B6803F594730821184602F075FF7B68C3
:102B600003F5C6747B6803F158051D4A1E4902AB84
:102B700003C983E803001B496B4603C983E80300CC
:102B80000CCA2946204601F0DBFB7B6803F5EA739B
:102B900000211846FFF78BFE7B6803F5C6747A6840
:102BA00007F110031146184600F06EFB07F1100301
:102BB0001946204601F0D5FD07F110031846FFF72E
:102BC000C0FE7B6818462037BD46B0BD7C010108B9
:102BD0003C010108440101084C01010854010108AD
:102BE0005C010108640101086C01010880B582B034
:102BF00000AF78607B681B68184600F02BFA00BFB6
:102C00000837BD4680BD80B582B000AF78607B6874
:102C10001B68184600F02BFA00BF0837BD4680BD80
:102C200080B582B000AF78607B681B68184600F002
:102C30002BFA00BF0837BD4680BD80B582B000AF1B
:102C400078607B681B68184600F02CFA00BF0837D4
:102C5000BD4680BDB0B58EB004AF78607B680433EC
:102C60000121184606F0A4FC7B68FB6007F10C0309
:102C700019467C4800F03FFB7B683B6107F110037D
:102C80001946794800F061FB7B687B6107F114030A
:102C90001946764800F083FB7B68BB6107F1180397
:102CA0001946734800F0A5FB40F2EE2008F0B6FA92
:102CB0007B6803F1C40001230293002301930023E6
:102CC000009300230022032102F002FF0346FB725F
:102CD000FB7A83F00103DBB2002B04D0654A752137
:102CE000654808F045FA7B6803F594700123029368
:102CF000002301930023009300230122032102F00B
:102D0000E7FE0346FB72FB7A83F00103DBB2002B84
:102D100004D0584A7821584808F02AFA7B6803F111
:102D2000C4047B685833184607F0ABF905467B6846
:102D30005833184607F0B1F903461A46294620468B
:102D400002F064FF0346FB72FB7A83F00103DBB2FF
:102D5000002B04D0474A7B21474808F009FA7B68DA
:102D600003F594747B685833184607F08AF90546D2
:102D70007B685833184607F09CF903461A462946E3
:102D8000204602F043FF0346FB72FB7A83F0010307
:102D9000DBB2002B04D0374A7E21374808F0E8F92F
:102DA0007B6803F1580407F11C00344B03220B210C
:102DB000FFF7D4FD07F11C031946204607F0A4F8DD
:102DC0000346FB72FB7A83F00103DBB2002B04D0D5
:102DD000284A8121284808F0CBF97B6803F5C6749E
:102DE00007F1240001230093002304220121FFF7AF
:102DF00087FD07F124031946204601F03DFB0346F9
:102E0000FB72FB7A83F00103DBB2002B04D0194A7A
:102E10008421194808F0ACF97B6803F5EA730021B6
:102E2000184600F005FB7B6803F5C673184601F0F1
:102E300007FC0346FB72FB7A83F00103DBB2002B35
:102E400004D00C4A88210C4808F092F97B680433BE
:102E50000021184606F0ACFBFB7A18462837BD4621
:102E6000B0BD00BFC0150020D0150020E015002027
:102E7000F015002014FE00085CFE000840420F0020
:102E800080B582B000AF78607B68043300211846BB
:102E900006F08EFB7B6810330021184606F088FB95
:102EA0007B681C330021184606F082FB7B682833C0
:102EB0000021184606F07CFB7B681C33184606F0A0
:102EC00045FBFA2008F0AAF9F6E7000080B586B0C5
:102ED00002AF78600023FB7300230193002300936B
:102EE0000023802237493848FDF798F90346012B23
:102EF0000CBF01230023DBB2FB73FB7B83F00103D8
:102F0000DBB2002B04D0314AAD21314808F030F952
:102F10000023019300230093002380222D492E4893
:102F2000FDF77CF90346012B0CBF01230023DBB224
:102F3000FB73FB7B83F00103DBB2002B04D0234A3D
:102F4000AF21234808F014F90023019300230093D4
:102F50000023802221492248FDF760F90346012B16
:102F60000CBF01230023DBB2FB73FB7B83F0010367
:102F7000DBB2002B04D0154AB121154808F0F8F84F
:102F8000184B019301230093002380221649174810
:102F9000FDF744F90346012B0CBF01230023DBB2EC
:102FA000FB73FB7B83F00103DBB2002B04D0074AE9
:102FB000B321074808F0DCF8FB7B18461037BD4604
:102FC00080BD00BF64FE00082131000814FE000827
:102FD0005CFE000878FE00083531000888FE000815
:102FE0004B310008BC15002098FE00086131000834
:102FF00080B582B000AF7860FDF728FD00BF0837CC
:10300000BD4680BD80B584B000AF78600B46FB70D4
:103010000023FB607B6803F5EA73FA7811461846D3
:1030200000F006FA094B1B6807F10C020021184654
:10303000FEF774FCFB68002B03D0054B4FF0805269
:103040001A6000BF1037BD4680BD00BFBC15002010
:1030500004ED00E080B582B000AF78607B68043397
:10306000184606F073FA00BF0837BD4680BD80B52C
:1030700082B000AF78607B681C33184606F066FAB1
:1030800000BF0837BD4680BD80B582B000AF786014
:103090007B682833184606F059FA00BF0837BD464A
:1030A00080BD000090B585B000AF78607B6803F507
:1030B000EA73184600F0DCF90346002BCCBF01236D
:1030C0000023DBB2002B20D07B681033184606F0BB
:1030D0003DFA7B6803F5C6747B6803F5EA7318460E
:1030E00000F0C6F903461A460A49204601F048FB9B
:1030F0000346FB73FB7B83F00103DBB2002B04D0A0
:10310000054AF821054808F013F800BF1437BD46FA
:1031100090BD00BF0016002014FE0008ACFE0008A1
:1031200080B582B000AF7860FFF768FCC820FDF77B
:1031300069FAF9E780B582B000AF7860FFF76EFCFE
:103140004FF4E170FDF75EFAF8E780B582B000AFAA
:103150007860FFF773FC40F23F20FDF753FAF8E781
:1031600080B584B000AF78604FF4FA73BB604FF461
:10317000FA7200210020FEF78DF9F860FB68012B40
:10318000F5D1FFF76BFCF2E780B400AF30BF00BFB2
:10319000BD465DF8047B704780B582B000AF7860B3
:1031A0003960054A40F25111044807F0E1FF00BFC1
:1031B0000837BD4680BD00BF14FE0008BCFE0008F5
:1031C00080B483B000AF78607B6818460C37BD468A
:1031D0005DF8047B704780B582B000AF78603960DD
:1031E0007868FFF7EDFF7B681846FFF70BFB7B68FD
:1031F00018460837BD4680BD80B483B000AF786004
:103200007B6818460C37BD465DF8047B704780B577
:1032100082B000AF78607868FFF7EEFF7B681846F1
:103220000837BD4680BD80B582B000AF78607B684E
:103230001846FFF708FB034683F00103DBB218468C
:103240000837BD4680BD80B582B000AF78607B682E
:103250001846FFF7F8FA0346002B01D00BF0B5FF34
:103260007B68DB687A68104698470837BD4680BDA2
:1032700080B483B000AF78607B6818460C37BD46D9
:103280005DF8047B7047000090B583B000AF7860B4
:1032900039607868FFF7BBFF7B681846FFF7B2FA22
:1032A0003B46184600F020F90346002B0FD07C68FF
:1032B0003B461846FFF7DCFF03461946204600F060
:1032C0001EF97B68044ADA607B68044A9A607B686E
:1032D00018460C37BD4690BD3935000865350008E5
:1032E00080B483B000AF78607B6818460C37BD4669
:1032F0005DF8047B704780B586B000AF78603960B8
:103300003868FFF7EDFF024607F108031168184619
:1033100000F05CF907F108037968184600F0C3F87B
:1033200007F108031846FFF7DEFA7B6818461837DE
:10333000BD4680BD80B483B000AF78607B6818461E
:103340000C37BD465DF8047B704780B586B000AF92
:10335000786039603868FFF7EDFF024607F108032F
:103360001168184600F06AF907F1080379681846F1
:1033700000F099F807F108031846FFF7B4FA7B68E4
:1033800018461837BD4680BD80B483B000AF786062
:103390007B6818460C37BD465DF8047B704780B5E6
:1033A00086B000AF786039603868FFF7EDFF0246FD
:1033B00007F108031168184600F078F907F10803CF
:1033C0007968184600F06FF807F108031846FFF710
:1033D0008AFA7B6818461837BD4680BD80B483B032
:1033E00000AF78607B6818460C37BD465DF8047BFB
:1033F000704780B586B000AF786039603868FFF7F5
:10340000EDFF024607F108031168184600F086F93F
:1034100007F108037968184600F045F807F108033A
:103420001846FFF760FA7B6818461837BD4680BD1E
:1034300080B584B000AF78600B46FB707B68FB60A2
:10344000FB78FB720523BB72BB7A4FF6FF711846FF
:10345000FFF70AFA03467B72FB68BFF35B8FFA7AC9
:103460001A70BFF35B8FFB7818461037BD4680BDDE
:1034700080B584B000AF78607B68FB600523FB7289
:10348000FB7A4FF6FF711846FFF7EEF90346BB7261
:10349000FB68BFF35B8F1B78BFF35B8FDBB2184613
:1034A0001037BD4680BD80B582B000AF786039600E
:1034B0007B683A681146184600F067F97B6803F1AB
:1034C00008023B6808331946104600F090F97B6803
:1034D00003F10C023B680C331946104600F0B1F9B9
:1034E00000BF0837BD4680BD80B483B000AF7860B0
:1034F000012318460C37BD465DF8047B704790B534
:1035000085B000AF786039603868FFF7B1FE0346D8
:1035100022461946786800F0B3F900BF1437BD465B
:1035200090BD80B483B000AF78607B6818460C37DC
:10353000BD465DF8047B704790B583B000AF7860FE
:103540003960786800F0B7F904463868FFF7E9FF9A
:1035500003461B7819462046FFF790FA00BF0C3748
:10356000BD4690BDB0B586B000AFF860B9601346F7
:10357000FB71FB79022B0DD0032B11D0012B14D141
:10358000F86800F0A9F90446B86800F094F9034619
:1035900023600AE02A46B968F86800F0A9F904E057
:1035A0002146F86800F0BFF900BF0023184618371D
:1035B000BD46B0BD80B483B000AF78607B6818466C
:1035C0000C37BD465DF8047B7047000090B583B0B2
:1035D00000AF786039607868FFF7F2FD7B681846C5
:1035E000FFF710F93B46184600F0A9F90346002BF7
:1035F0000FD07C683B461846FFF7DCFF03461946B0
:10360000204600F0A7F97B68044ADA607B68044A28
:103610009A607B6818460C37BD4690BD7939000822
:103620009739000880B483B000AF78607B68184693
:103630000C37BD465DF8047B7047000090B583B041
:1036400000AF786039607868FFF7BAFD7B6818468C
:10365000FFF7D8F83B46184600F0C5F90346002BA3
:103660000FD07C683B461846FFF7DCFF034619463F
:10367000204600F0C3F97B68044ADA607B68044A9C
:103680009A607B6818460C37BD4690BD213A000809
:103690003F3A000880B483B000AF78607B6818467A
:1036A0000C37BD465DF8047B7047000090B583B0D1
:1036B00000AF786039607868FFF782FD7B68184654
:1036C000FFF7A0F83B46184600F0E1F90346002B4F
:1036D0000FD07C683B461846FFF7DCFF03461946CF
:1036E000204600F0DFF97B68044ADA607B68044A10
:1036F0009A607B6818460C37BD4690BDC93A0008F1
:10370000E73A000880B483B000AF78607B68184661
:103710000C37BD465DF8047B7047000090B583B060
:1037200000AF786039607868FFF74AFD7B6818461B
:10373000FFF768F83B46184600F0FDF90346002BFA
:103740000FD07C683B461846FFF7DCFF034619465E
:10375000204600F0FBF97B68044ADA607B68044A83
:103760009A607B6818460C37BD4690BD713B0008D7
:103770008F3B000880B483B000AF78607B68184648
:103780000C37BD465DF8047B704780B584B000AF50
:10379000786039607868FFF7EDFF024607F10803AB
:1037A00092E8030083E803003868FFF7E3FF02466E
:1037B0007B6892E8030083E8030007F108031846DA
:1037C000FFF7D8FF02463B6892E8030083E8030056
:1037D00000BF1037BD4680BD80B483B000AF7860B5
:1037E0007B6818460C37BD465DF8047B704780B592
:1037F00084B000AF786039607868FFF7EDFF03466A
:103800001B68FB603868FFF7E7FF03461A687B68B0
:103810001A6007F10C031846FFF7DEFF03461A682B
:103820003B681A6000BF1037BD4680BD80B483B0CE
:1038300000AF78607B6818460C37BD465DF8047BA6
:10384000704780B584B000AF786039607868FFF762
:10385000EDFF03461B68FB603868FFF7E7FF034690
:103860001A687B681A6007F10C031846FFF7DEFF41
:1038700003461A683B681A6000BF1037BD4680BD1A
:1038800090B585B000AFF860B9603A71B868FFF7DD
:10389000EFFC0446F868FEF79FFF03461946042034
:1038A000FEF78EFF0346002B01D022681A6000BF8E
:1038B0001437BD4690BD80B584B000AF786078689D
:1038C00000F08DF90346184600F095F9F860FB68A2
:1038D00018461037BD4680BD80B582B000AF786015
:1038E0007868FEF779FF034618460837BD4680BD65
:1038F00090B585B000AFF860B9603A71B86800F073
:103900006EF90446F868FEF767FF0346194604207F
:10391000FEF756FF0346002B01D022681A6000BF55
:103920001437BD4690BD80B582B000AF7860397065
:10393000786800F06BF900BF0837BD4680BD80B4E1
:1039400083B000AF7860012318460C37BD465DF8A0
:10395000047B704790B585B000AF786039603868F7
:10396000FFF728FE034622461946786800F05AF908
:1039700000BF1437BD4690BD80B582B000AF7860FF
:10398000786800F06AF903461846FFF72FF900BF80
:103990000837BD4680BDB0B586B000AFF860B960ED
:1039A0001346FB71FB79022B0DD0032B11D0012B99
:1039B00014D1F86800F062F90446B86800F04DF9D7
:1039C000034623600AE02A46B968F86800F062F905
:1039D00004E02146F86800F078F900BF002318469B
:1039E0001837BD46B0BD80B483B000AF7860012306
:1039F00018460C37BD465DF8047B704790B585B01E
:103A000000AF786039603868FFF70CFE0346224645
:103A10001946786800F065F900BF1437BD4690BDBF
:103A200080B582B000AF7860786800F075F9034621
:103A30001846FFF7E8F800BF0837BD4680BDB0B5AF
:103A400086B000AFF860B9601346FB71FB79022BBA
:103A50000DD0032B11D0012B14D1F86800F06DF9B3
:103A60000446B86800F058F9034623600AE02A4685
:103A7000B968F86800F06DF904E02146F86800F0D4
:103A800083F900BF002318461837BD46B0BD80B487
:103A900083B000AF7860012318460C37BD465DF84F
:103AA000047B704790B585B000AF786039603868A6
:103AB000FFF7F0FD034622461946786800F070F9DA
:103AC00000BF1437BD4690BD80B582B000AF7860AE
:103AD000786800F080F903461846FFF7A1F800BFA8
:103AE0000837BD4680BDB0B586B000AFF860B9609C
:103AF0001346FB71FB79022B0DD0032B11D0012B48
:103B000014D1F86800F078F90446B86800F063F959
:103B1000034623600AE02A46B968F86800F078F99D
:103B200004E02146F86800F08EF900BF0023184633
:103B30001837BD46B0BD80B483B000AF78600123B4
:103B400018460C37BD465DF8047B704790B585B0CC
:103B500000AF786039603868FFF7D4FD034622462D
:103B60001946786800F07BF900BF1437BD4690BD58
:103B700080B582B000AF7860786800F08BF90346BA
:103B80001846FFF75AF800BF0837BD4680BDB0B5EC
:103B900086B000AFF860B9601346FB71FB79022B69
:103BA0000DD0032B11D0012B14D1F86800F083F94C
:103BB0000446B86800F06EF9034623600AE02A461E
:103BC000B968F86800F083F904E02146F86800F06D
:103BD00099F900BF002318461837BD46B0BD80B51F
:103BE00082B000AF78607868FEF701FE03461846A1
:103BF0000837BD4680BD80B483B000AF78607B6875
:103C000018460C37BD465DF8047B704780B582B01E
:103C100000AF78607868FEF7DFFD03461846083786
:103C2000BD4680BD90B585B000AFF860B9603A710F
:103C3000B868FFF7BFFC0446F868FEF7CDFD034601
:103C400019460420FEF7BCFD0346002B01D0226874
:103C50001A6000BF1437BD4690BD80B584B000AF78
:103C60007860786800F05AF90346184600F062F967
:103C7000F860FB6818461037BD4680BD80B582B03D
:103C800000AF78607868FEF7A7FD0346184608374E
:103C9000BD4680BD90B585B000AFF860B9603A719F
:103CA000B86800F03BF90446F868FEF795FD034656
:103CB00019460420FEF784FD0346002B01D022683C
:103CC0001A6000BF1437BD4690BD80B582B000AF0A
:103CD00078603970786800F038F900BF0837BD4661
:103CE00080BD90B585B000AFF860B9603A71B86832
:103CF000FFF798FC0446F868FEF76EFD0346194688
:103D00000420FEF75DFD0346002B01D022681A60F7
:103D100000BF1437BD4690BD80B584B000AF786059
:103D2000786800F01EF90346184600F026F9F8609E
:103D3000FB6818461037BD4680BD80B582B000AF25
:103D400078607868FEF748FD034618460837BD4698
:103D500080BD90B585B000AFF860B9603A71B868C1
:103D600000F0FFF80446F868FEF736FD03461946F2
:103D70000420FEF725FD0346002B01D022681A60BF
:103D800000BF1437BD4690BD80B582B000AF7860EB
:103D90003970786800F0FCF800BF0837BD4680BD78
:103DA00090B585B000AFF860B9603A71B868FFF7B8
:103DB00071FC0446F868FEF70FFD0346194604201F
:103DC000FEF7FEFC0346002B01D022681A6000BFFC
:103DD0001437BD4690BD80B584B000AF7860786878
:103DE00000F0E2F80346184600F0EAF8F860FB68D5
:103DF00018461037BD4680BD80B582B000AF7860F0
:103E00007868FEF7E9FC034618460837BD4680BDD2
:103E100090B585B000AFF860B9603A71B86800F04D
:103E2000C3F80446F868FEF7D7FC03461946042099
:103E3000FEF7C6FC0346002B01D022681A6000BFC3
:103E40001437BD4690BD80B582B000AF7860397040
:103E5000786800F0C0F800BF0837BD4680BD90B557
:103E600085B000AFF860B9603A71B868FFF74AFCF6
:103E70000446F868FEF7B0FC034619460420FEF736
:103E80009FFC0346002B01D022681A6000BF143744
:103E9000BD4690BD80B584B000AF7860786800F012
:103EA000A6F80346184600F0AEF8F860FB6818461E
:103EB0001037BD4680BD80B582B000AF78607868AD
:103EC000FEF78AFC034618460837BD4680BD90B50C
:103ED00085B000AFF860B9603A71B86800F087F853
:103EE0000446F868FEF778FC034619460420FEF7FE
:103EF00067FC0346002B01D022681A6000BF14370C
:103F0000BD4690BD80B582B000AF786039707868EA
:103F100000F084F800BF0837BD4680BD80B582B090
:103F200000AF78607868FEF762FC034618460837F1
:103F3000BD4680BD80B483B000AF78607B68184612
:103F40000C37BD465DF8047B704780B582B000AF8A
:103F500078607868FEF740FC034618460837BD468F
:103F600080BD80B582B000AF78607868FEF73FFC16
:103F7000034618460837BD4680BD80B483B000AF05
:103F800078607B6818460C37BD465DF8047B704747
:103F900080B582B000AF78607868FEF71DFC0346FC
:103FA00018460837BD4680BD80B582B000AF786046
:103FB0007868FEF71CFC034618460837BD4680BDEE
:103FC00080B483B000AF78607B6818460C37BD467C
:103FD0005DF8047B704780B582B000AF7860786888
:103FE000FEF7FAFB034618460837BD4680BD80B58C
:103FF00082B000AF78607868FEF7F9FB0346184698
:104000000837BD4680BD80B483B000AF78607B6860
:1040100018460C37BD465DF8047B704780B582B00A
:1040200000AF78607868FEF7D7FB0346184608377C
:10403000BD4680BD80B582B000AF786039607B68D6
:10404000012B14D13B684FF6FF7293420FD1002130
:104050001348FFF7C0F800211248FFF7BCF8002111
:104060001148FFF7B8F800211048FFF7B4F87B6853
:10407000002B10D13B684FF6FF7293420BD10B48D7
:10408000FEF731FC0848FEF72EFC0648FEF72BFC35
:104090000348FEF728FC00BF0837BD4680BD00BFBF
:1040A000C0150020D0150020E0150020F0150020DC
:1040B00080B500AF4FF6FF710120FFF7BBFF80BD59
:1040C00080B500AF4FF6FF710020FFF7B3FF80BD52
:1040D00080B5A4B002AF3E4A381D002301930023EF
:1040E0000093072306CA04F05DFF3A4A07F1100067
:1040F0000023019301230093072306CA04F052FF13
:10410000354A07F11C000023019301230093072384
:1041100006CA04F047FF314A07F128000023019343
:1041200000230093072306CA04F03CFF2C4A07F142
:1041300034000123019300230093042306CA04F0F2
:1041400031FF284A07F14000012301930023009327
:10415000042306CA04F026FF234A07F14C0000237B
:10416000019300230093052306CA04F01BFF1F4A96
:1041700007F158000023019300230093052306CA8A
:1041800004F010FF1A4A07F1640000230193002392
:104190000093052306CA04F005FF164A07F17000D4
:1041A0000023019300230093052306CA04F0FAFEBE
:1041B000114A07F17C00002301930023009305239B
:1041C00006CA04F0EFFE00BF8837BD4680BD00BFC1
:1041D000840101088C010108940101089C01010877
:1041E000A4010108AC010108B4010108BC010108E7
:1041F000C4010108CC010108D401010880B594B0C4
:1042000000AF07F120033022002118460BF0A1F97E
:104210000023BB60334A334B1B6C43F08053136461
:10422000304B1B6C03F08053BB60BB6807F0C0FFD2
:1042300000237B602C4A2C4B1B6843F440431360E3
:10424000294B1B6803F440437B607B6809233B6276
:104250004FF480337B6201237B630223BB634FF403
:104260008003FB6304233B6448237B640423BB6417
:104270000323FB6407F12003184607F0ADFF034654
:10428000002B14BF01230023DBB2002B01D000233D
:1042900024E007F10C0300221A605A609A60DA6089
:1042A0001A610F23FB6001233B6100237B61002324
:1042B000BB610023FB6107F10C030021184608F0E5
:1042C00003FA0346002B14BF01230023DBB2002BAB
:1042D00001D0002302E008F0DDFA01231846503730
:1042E000BD4680BD003802400070004080B483B0FD
:1042F00000AF7860044A7B681A607B6818460C3708
:10430000BD465DF8047B70470002010880B582B0AD
:1043100000AF78607B681B68184600F0D9FE00BFCC
:104320000837BD4680BD80B582B000AF78607B683D
:104330001B68184600F04CFF00BF0837BD4680BD23
:1043400090B58FB002AFF860B960394681E80C00D3
:10435000FB681846FFF7CAFF334AFB681A60FB6820
:10436000BA685A60FB6803F1080000230093012338
:104370003A4606CA04F0D1FDFB6803F1140000239D
:1043800007F1400206CA04F0EBFDFB6803F12000D0
:10439000002307F1480206CA04F0E2FDFB68002290
:1043A00083F82C20FB6800221A63FB68002283F844
:1043B0003420FB68002283F83520FB683833184628
:1043C00000F011FFFB6803F11404FA6807F1100311
:1043D0001146184600F022FF07F1100200230021C9
:1043E000204604F0F1FE07F110031846FEF77BFAB1
:1043F000FB6803F12004FA6807F120031146184610
:1044000000F044FF07F1200200230021204604F0C1
:10441000DBFE07F120031846FEF765FAFB68184635
:104420003437BD4690BD00BFE401010880B582B0BD
:1044300000AF7860074A7B681A60786800F084F8FB
:104440007B6838331846FEF77CFA7B6818460837D5
:10445000BD4680BDE401010880B582B000AF786040
:104460007868FFF7E3FF482178680AF09FFE7B68D1
:1044700018460837BD4680BD80B584B000AF78606F
:1044800039607B68083300220121184604F0AEFD34
:10449000786800F0C5F90346FB73FB7B002B3BD02B
:1044A0003968786800F0E6F903461946FB7B1A463E
:1044B0000B461340002B14BF01230023DBB2FB7318
:1044C000FB7B83F00103DBB2002B04D0154AA4214F
:1044D000154806F02DFEFB7B002B1DD0786800F000
:1044E00039FB03461946FB7B1A460B461340002B4B
:1044F00014BF01230023DBB2FB73FB7B83F00103BA
:10450000DBB2002B04D0074AA921074806F010FEB1
:104510007B68012283F82C20FB7B18461037BD46B0
:1045200080BD00BFC4FE00081CFF000880B483B03B
:1045300000AF78607B6893F82C3018460C37BD4686
:104540005DF8047B7047000080B584B000AF7860F0
:10455000786800F0C3F80346FB73FB7B83F001032C
:10456000DBB2002B04D0344AC321344806F000FEED
:104570007B681433184604F087FF03461946FB7B1B
:104580001A460B461340002B14BF01230023DBB255
:10459000FB73FB7B83F00103DBB2002B04D0264AC4
:1045A000C621264806F0E4FD7B682033184604F057
:1045B0006BFF03461946FB7B1A460B461340002B44
:1045C00014BF01230023DBB2FB73FB7B83F00103E9
:1045D000DBB2002B04D0184AC821184806F0C8FDE9
:1045E0007B6808330021184604F05EFD7B681433B5
:1045F0000021184604F058FD7B682033002118463E
:1046000004F052FD7B68002283F82C207B681B6B32
:10461000002B0BD07B681B6B002B04D07B681B6BC3
:1046200018460AF0C1FD7B6800221A63FB7B18461E
:104630001037BD4680BD00BFC4FE00081CFF000847
:1046400080B584B000AF78607B6893F82C30002B85
:104650003FD07B6893F83530002B2ED00023BB73FE
:1046600007F10E0201232E21786800F0ABFC03460F
:10467000002B2ED0BB7B03F01F03DBB2BB730221E8
:10468000786800F0CFFB0346FB73BA7BFB7B1343D8
:10469000DBB2BB737B681433184604F059FE7B68A9
:1046A0002033184604F054FE07F10E0201232E2198
:1046B000786800F013FC03460CE07B68143318465E
:1046C00004F046FE7B682033184604F041FE0123C7
:1046D00000E0002318461037BD4680BD80B584B089
:1046E00000AF78607B6893F82C30002B34D07B6867
:1046F00093F83530002B23D00023FB7307F10F0212
:1047000001232E21786800F05DFC0346002B23D0A6
:10471000FB7B03F01F03DBB2FB737B68143318468B
:1047200004F05AFE7B682033184604F055FE07F16A
:104730000F0201232E21786800F0D0FB03460CE025
:104740007B681433184604F047FE7B682033184614
:1047500004F042FE012300E0002318461037BD4656
:1047600080BD80B582B000AF786039607B68383337
:104770003968184600F0B6FD00BF0837BD4680BD59
:1047800080B586B000AFF860B9601346FB71FB6876
:1047900093F83530002B01D0962300E00623FB75FB
:1047A000BB68002B05D11A4A40F22F11194806F0B8
:1047B000BFFCFB79002B05DC154A4FF498711648B5
:1047C00006F0B6FCFA79FB7D9A4205DD104A40F20C
:1047D0003111124806F0ACFCBB68002B01D100235C
:1047E00012E0FB79002B01D100230DE0FA79FB7D6B
:1047F0009A4201DD002307E0B868FB681B6BFA7979
:1048000019460AF081FE012318461837BD4680BDBF
:10481000C4FE000824FF00082CFF000838FF000831
:1048200080B586B000AF78600023FB7500233B6144
:104830003B69182B18DC0023FB7307F10F020123DF
:104840000F21786800F0BEFB0346002B08D0FB7BED
:104850003F2B02D10123FB7506E0052006F0DEFCAC
:104860003B6901333B61E3E7FB7D18461837BD46E2
:1048700080BD000080B586B000AF786039603B68CD
:104880007B617B695B781946786800F031FA0346F2
:10489000FB747B699B781946786800F06BFA0346D5
:1048A000BB747B69DB781946786800F091FA03469F
:1048B0007B747B691A787B6883F835207B6893F872
:1048C0003530002B01D0002300E001233B743B7CFA
:1048D000DB005AB297F9133013435BB243F007037E
:1048E0005BB2DBB2FB7307F10F0201232021786872
:1048F00000F0F4FA0346BB73BB7B83F00103DBB229
:10490000002B05D0784A4FF4BA71784806F010FCB5
:104910007A7CBB7C1343DBB2FB7307F10F020123EC
:104920002421786800F0DAFA03461946BB7B1A4660
:104930000B461340002B14BF01230023DBB2BB73D3
:10494000BB7B83F00103DBB2002B05D0664A4FF43A
:10495000BC71664806F0ECFB7B6893F83530002BA1
:104960005ED09621786800F0C3F803461946BB7BF9
:104970001A460B461340002B14BF01230023DBB261
:10498000BB73BB7B83F00103DBB2002B05D0564A1F
:1049900040F27D11554806F0CBFB6823FB7307F10D
:1049A0000F0201232321786800F098FA0346194684
:1049B000BB7B1A460B461340002B14BF0123002378
:1049C000DBB2BB73BB7B83F00103DBB2002B05D0F2
:1049D000454A40F28111454806F0AAFB5423FB7377
:1049E00007F10F0201232521786800F077FA0346CA
:1049F0001946BB7B1A460B461340002B14BF0123FC
:104A00000023DBB2BB73BB7B83F00103DBB2002B63
:104A100043D0354A40F28511344806F089FB3CE02A
:104A20000621786800F064F803461946BB7B1A46F5
:104A30000B461340002B14BF01230023DBB2BB73D2
:104A4000BB7B83F00103DBB2002B05D0264A4FF479
:104A5000C571264806F06CFBE823FB7307F10F02D3
:104A600001232321786800F039FA03461946BB7BFD
:104A70001A460B461340002B14BF01230023DBB260
:104A8000BB73BB7B83F00103DBB2002B05D0164A5E
:104A90004FF4C771154806F04BFB1923FB7307F160
:104AA0000F0201232E21786800F018FA03461946F8
:104AB000BB7B1A460B461340002B14BF0123002377
:104AC000DBB2BB73BB7B83F00103DBB2002B05D0F1
:104AD000054A40F29511054806F02AFBBB7B1846B3
:104AE0001837BD4680BD00BFC4FE00081CFF00088B
:104AF00080B584B000AF78600B46FB707B681B6BA1
:104B0000002B08D07B681B6B002B04D07B681B6BD1
:104B100018460AF049FBFB780D4918460AF031FBAC
:104B200002467B681A637B681B6B002B0BD07B688B
:104B3000186B0023FB6007F10C02FB78194600F0AC
:104B4000ECFB012300E0002318461037BD4680BD72
:104B5000AC0201082DE9F04389B000AF7860002372
:104B6000BB7407F1120201232F21786800F02AFAA2
:104B700003467B747B7C83F00103DBB2002B05D002
:104B8000594A4FF4DE71594806F0D2FABB7C03F063
:104B90002003002B40F0A180BB7C03F01F03FB77B8
:104BA000FB7F002B4DDD6B461E46FB7F1A465200F5
:104BB00013445B00BB77BB7F013BBB61BA7F4FF007
:104BC00000034FEAC30949EA52794FEAC208BA7FA3
:104BD0004FF00003DD0045EA5275D400BB7F073378
:104BE000DB08DB00ADEB030D6B4600337B617A69BC
:104BF000BB7F013B002B04DB002111700132013B24
:104C0000F8E77A69BB7F9BB22821786800F0DAF96F
:104C1000034619467B7C1A460B461340002B14BFF3
:104C200001230023DBB27B747B7C83F00103DBB2C6
:104C3000002B05D02C4A4FF4E3712C4806F078FA8B
:104C4000B5460023BB7407F1120201232F217868B7
:104C500000F0B8F9034619467B7C1A460B46134010
:104C6000002B14BF01230023DBB27B747B7C83F019
:104C70000103DBB2002B05D01B4A40F2CB111B48CD
:104C800006F056FABB7C03F02003002B25D1062347
:104C9000FB7407F1080300221A609A8007F10802EA
:104CA00006232821786800F08DF9034619467B7C9D
:104CB0001A460B461340002B14BF01230023DBB21E
:104CC0007B747B7C83F00103DBB2002B05D0064AAA
:104CD0004FF4E971054806F02BFA7B7C184624371F
:104CE000BD46BDE8F08300BFC4FE00081CFF0008FD
:104CF00080B485B000AF78600B46FB700023FB7377
:104D0000FB78082B2FD801A252F823F0314D000870
:104D1000374D00083D4D0008434D0008494D00083F
:104D20004F4D0008554D00085B4D0008614D0008CF
:104D30001023FB7317E02023FB7314E03023FB7375
:104D400011E04023FB730EE05023FB730BE0602364
:104D5000FB7308E07023FB7305E08023FB7302E024
:104D60009023FB7300BFFB7B18461437BD465DF8EC
:104D7000047B704780B485B000AF78600B46FB7051
:104D80000023FB73FB78042B1BD801A252F823F0FD
:104D9000A54D0008AB4D0008B14D0008B74D000807
:104DA000BD4D00080023FB730BE00823FB7308E0F4
:104DB0001023FB7305E01823FB7302E02023FB7331
:104DC00000BFFB7B18461437BD465DF8047B704777
:104DD00080B485B000AF78600B46FB700023FB7396
:104DE000FB78032B16D801A252F823F00F4E0008CF
:104DF000034E0008094E0008FD4D0008C023FB7358
:104E000008E04023FB7305E08023FB7302E00023EE
:104E1000FB7300BFFB7B18461437BD465DF8047B6F
:104E2000704700BF80B485B000AF78600B46FB7060
:104E30000023FB73FB78052B20D801A252F823F046
:104E4000594E00085F4E0008654E00086B4E000882
:104E5000714E0008774E00080023FB730EE02023FC
:104E6000FB730BE04023FB7308E06023FB7305E05A
:104E70008023FB7302E0E023FB7300BFFB7B18463B
:104E80001437BD465DF8047B704700BF80B582B023
:104E900000AF78607B6808330121184604F088FB76
:104EA0007B683833184600F04CFA0346002B11D0CB
:104EB0007B6893F83530002B06D07B683833962119
:104EC000184600F04EFA05E07B6838330621184694
:104ED00000F047FA00BF0837BD4680BD80B586B0F8
:104EE00000AFF8607A601A460B46FB7213463B81AE
:104EF0007B68002B05D12F4A40F24F212E4806F047
:104F000017F93B89002B05DC2A4A4FF414712B4812
:104F100006F00EF9FB6808330021184604F048FB40
:104F2000FB685B681B6818331B68FA68506807F1F8
:104F30000B01012298470346FB75FB7D83F00103BB
:104F4000DBB2002B05D01B4A4FF415711C4806F04C
:104F5000EFF8FB7D002B21D0FB685B681B681833E2
:104F60001B68FA68506879683A8998470346194679
:104F7000FB7D1A460B461340002B14BF0123002370
:104F8000DBB2FB75FB7D83F00103DBB2002B05D0A8
:104F9000084A4FF416710A4806F0CAF8FB6808334D
:104FA0000121184604F004FBFB7D18461837BD4666
:104FB00080BD00BFC4FE00084CFF00082CFF0008A5
:104FC0001CFF000880B586B000AFF8607A601A4612
:104FD0000B46FB7213463B817B68002B05D1314A9F
:104FE00040F26921304806F0A3F83B89002B05DC2C
:104FF0002C4A40F26A212D4806F09AF8FB7A63F0B9
:105000007F03DBB2FB72FB6808330021184604F013
:10501000CFFAFB685B681B6818331B68FA68506836
:1050200007F10B01012298470346FB75FB7D83F0D6
:105030000103DBB2002B05D01A4A4FF41C711C4847
:1050400006F076F8FB7D002B21D0FB685B681B68BF
:1050500020331B68FA68506879683A899847034694
:105060001946FB7D1A460B461340002B14BF012343
:105070000023DBB2FB75FB7D83F00103DBB2002B69
:1050800005D0084A4FF41D71094806F051F8FB6835
:1050900008330121184604F08BFAFB7D18461837B7
:1050A000BD4680BDC4FE000824FF00082CFF000898
:1050B0001CFF000880B582B000AF78607B681B6879
:1050C0001846FFF7E3FE00BF0837BD4680BD00006D
:1050D0002DE9F04188B000AF78607B6893F83530F7
:1050E000002B01D0962300E00623FB777B681B6B27
:1050F000002B63D0FB7F002B60DDA823FB727B6855
:1051000008330021184604F053FA7B685B681B687B
:1051100018331B687A68506807F10B010122984721
:105120000346BB72BB7A83F00103DBB2002B05D0D0
:10513000254A40F28921254805F0FAFFBB7A002B69
:1051400036D07B685B681B6808331C687B685D68C9
:105150007B681E6BFB7F1FFA83F87A6807F10C03EC
:105160001146184600F026F907F10C034246314675
:105170002846A04703461946BB7A1A460B461340F9
:10518000002B14BF01230023DBB2BB7207F10C0319
:105190001846FDF7A8FBBB7A83F00103DBB2002BB6
:1051A0000CD0094A40F28D21084805F0C1FF05E006
:1051B0007B6808330121184604F0FAF900BF203754
:1051C000BD46BDE8F08100BFC4FE00081CFF00081A
:1051D00080B483B000AF786000BF00BF0C37BD461D
:1051E0005DF8047B704780B582B000AF7860786866
:1051F000FEF70DF87B681846FDF704FB7B68184640
:105200000837BD4680BD80B483B000AF78607B684E
:1052100018460C37BD465DF8047B704790B583B0E7
:1052200000AF786039607868FDF7CAFF7B68184680
:10523000FDF7E8FA3B46184600F0E8F80346002B75
:105240000FD07C683B461846FFF7DDFF0346194642
:10525000204600F0E6F87B68044ADA607B68044A7E
:105260009A607B6818460C37BD4690BD47540008CD
:105270006554000880B483B000AF78607B6818463E
:105280000C37BD465DF8047B7047000090B583B0D5
:1052900000AF786039607868FDF792FF7B68184648
:1052A000FDF7B0FA3B46184600F004F90346002B20
:1052B0000FD07C683B461846FFF7DCFF03461946D3
:1052C000204600F002F97B68044ADA607B68044AF1
:1052D0009A607B6818460C37BD4690BDEF540008B5
:1052E0000D55000880B586B000AF7860396007F1D1
:1052F00008033968184600F031F907F108037968A6
:10530000184600F050F907F108031846FDF719FB9D
:105310007B6818461837BD4680BD80B584B000AFA5
:10532000F8600B467A60FB72F86800F05DF9FB7A72
:105330007A68194600F063F9034618461037BD46EF
:1053400080BD80B582B000AF78607B681846FDF7FD
:105350007AFA034683F00103DBB218460837BD46EC
:1053600080BDB0B582B000AF78600B46FB707B6843
:105370001846FDF768FA0346002B01D009F025FF17
:105380007B68DC687D68FB1C1846FEF7CAF803469C
:1053900019462846A0470837BD46B0BD80B483B043
:1053A00000AF78607B6818460C37BD465DF8047B1B
:1053B0007047000090B583B000AF786039607868BE
:1053C000FDF7FEFE7B681846FDF71CFA3B461846C3
:1053D00000F036F90346002B0FD07C683B46184698
:1053E000FFF7DCFF03461946204600F034F97B68DE
:1053F000044ADA607B68044A9A607B6818460C3776
:10540000BD4690BD7B5600089956000880B483B015
:1054100000AF7860012318460C37BD465DF8047B69
:10542000704790B585B000AF786039603868FFF795
:10543000EAFE034622461946786800F055F900BF97
:105440001437BD4690BD80B582B000AF78607868F3
:1054500000F065F903461846FEF758FF00BF08370D
:10546000BD4680BDB0B586B000AFF860B9601346E8
:10547000FB71FB79022B0DD0032B11D0012B14D122
:10548000F86800F05DF90446B86800F048F9034692
:1054900023600AE02A46B968F86800F05DF904E084
:1054A0002146F86800F073F900BF0023184618374A
:1054B000BD46B0BD80B483B000AF7860012318460C
:1054C0000C37BD465DF8047B704790B585B000AFE2
:1054D000786039603868FFF7CDFE034622461946EA
:1054E000786800F060F900BF1437BD4690BD80B504
:1054F00082B000AF7860786800F070F90346184613
:10550000FEF711FF00BF0837BD4680BDB0B586B0BD
:1055100000AFF860B9601346FB71FB79022B0DD028
:10552000032B11D0012B14D1F86800F068F9044660
:10553000B86800F053F9034623600AE02A46B968C8
:10554000F86800F068F904E02146F86800F07EF998
:1055500000BF002318461837BD46B0BD80B582B0E5
:1055600000AF786039607868FDF751FE7B681846B7
:10557000FDF748F93868FFF7E4FE0346002B0DD02D
:105580003B689B6878683968022298473B68DA680C
:105590007B68DA603B689A687B689A607B6818462B
:1055A0000837BD4680BD80B582B000AF78603960F5
:1055B0007B683A6811461846FEF7E7F87B6803F106
:1055C00008023B68083319461046FEF710F97B685D
:1055D00003F10C023B680C331946104600F04DF9FC
:1055E00000BF0837BD4680BD80B483B000AF78608F
:1055F0007B6818460C37BD465DF8047B704780B465
:1056000087B000AFF8600B467A60FB727B681B685E
:105610003B61FB7A7B617B69002B0ADD3B69DAB277
:10562000FB681A707B69013B7B61FB680133FB609F
:10563000F1E7FB6818461C37BD465DF8047B7047F0
:1056400080B483B000AF7860012318460C37BD46A4
:105650005DF8047B704790B585B000AF7860396025
:105660003868FFF79BFE034622461946786800F02B
:1056700023F900BF1437BD4690BD80B582B000AF9E
:105680007860786800F033F903461846FFF712FD9A
:1056900000BF0837BD4680BDB0B586B000AFF8602A
:1056A000B9601346FB71FB79022B0DD0032B11D08F
:1056B000012B14D1F86800F02BF90446B86800F00B
:1056C00016F9034623600AE02A46B968F86800F034
:1056D0002BF904E02146F86800F041F900BF0023EF
:1056E00018461837BD46B0BD90B585B000AFF8601C
:1056F000B9603A71B868FFF786FD0446F868FDF7AF
:105700006BF8034619460420FDF75AF80346002BB0
:1057100001D022681A6000BF1437BD4690BD80B525
:1057200084B000AF7860786800F025F90346184629
:1057300000F02DF9F860FB6818461037BD4680BDB3
:1057400080B582B000AF78607868FDF745F8034611
:1057500018460837BD4680BD90B585B000AFF860EB
:10576000B9603A71B86800F006F90446F868FDF7C8
:1057700033F8034619460420FDF722F80346002BB0
:1057800001D022681A6000BF1437BD4690BD80B5B5
:1057900082B000AF78603970786800F003F900BF1C
:1057A0000837BD4680BD90B585B000AFF860B960E0
:1057B0003A71B868FFF75EFD0446F868FDF70CF82B
:1057C000034619460420FCF7FBFF0346002B01D0DB
:1057D00022681A6000BF1437BD4690BD80B584B002
:1057E00000AF7860786800F0E9F80346184600F0EA
:1057F000F1F8F860FB6818461037BD4680BD80B5EB
:1058000082B000AF78607868FCF7E6FF0346184680
:105810000837BD4680BD90B585B000AFF860B9606F
:105820003A71B86800F0CAF80446F868FCF7D4FF8B
:10583000034619460420FCF7C3FF0346002B01D0A2
:1058400022681A6000BF1437BD4690BD80B582B093
:1058500000AF78603970786800F0C7F800BF08378B
:10586000BD4680BD80B483B000AF78607B681846C9
:105870000C37BD465DF8047B704780B584B000AF3F
:10588000786039607868FFF7EDFF03461B68FB60BE
:105890003868FFF7E7FF03461A687B681A6007F16C
:1058A0000C031846FFF7DEFF03461A683B681A60D0
:1058B00000BF1037BD4680BD90B585B000AFF86021
:1058C000B9603A71B868FFF769FD0446F868FCF7FB
:1058D00083FF034619460420FCF772FF0346002BA2
:1058E00001D022681A6000BF1437BD4690BD80B554
:1058F00084B000AF7860786800F083F803461846FB
:1059000000F08BF8F860FB6818461037BD4680BD84
:1059100080B582B000AF78607868FCF75DFF034621
:1059200018460837BD4680BD90B585B000AFF86019
:10593000B9603A71B86800F064F80446F868FCF79A
:105940004BFF034619460420FCF73AFF0346002BA1
:1059500001D022681A6000BF1437BD4690BD80B5E3
:1059600082B000AF78603970786800F061F800BFED
:105970000837BD4680BD80B582B000AF78607868DA
:10598000FCF735FF034618460837BD4680BD80B496
:1059900083B000AF78607B6818460C37BD465DF871
:1059A000047B704780B582B000AF78607868FCF700
:1059B00013FF034618460837BD4680BD80B582B048
:1059C00000AF78607868FCF712FF03461846083786
:1059D000BD4680BD80B483B000AF78607B68184658
:1059E0000C37BD465DF8047B704780B582B000AFD0
:1059F00078607868FCF7F0FE034618460837BD4625
:105A000080BD80B582B000AF78607868FCF7EFFEAB
:105A1000034618460837BD4680BD80B483B000AF4A
:105A200078607B6818460C37BD465DF8047B70478C
:105A300080B582B000AF78607868FCF7CDFE034691
:105A400018460837BD4680BD80B582B000AF78608B
:105A50000B46FB707B68184660231A46002109F04C
:105A600078FD7B68FA7883F860207B68002283F8F1
:105A700061207B681B68002B04D0094A2F2109484C
:105A800005F076FBFB781946786800F0E7F80246E7
:105A90007B681A607B6818460837BD4680BD00BF2A
:105AA00050FF00089CFF000880B582B000AF78600E
:105AB0007B6893F860301946786800F073FC7B6867
:105AC000184605F0D1FD7B6818460837BD4680BDF5
:105AD00080B584B000AF7860084611461A46034688
